:020000040800F2
:100000004005002095440008B9440008BD4400089C
:100010006D4300086F4300087143000800000000B2
:10002000000000000000000000000000C1440008C3
:100030007343000800000000C54400087543000831
:10004000C9440008CD440008D14400088343000897
:10005000D5440008D944000889430008DD4400085D
:10006000E1440008E5440008E9440008ED440008C4
:10007000F1440008F5440008F9440008FD44000874
:100080000145000805450008094500080D45000820
:100090001145000815450008194500081D450008D0
:1000A0002145000825450008294500082D45000880
:1000B0003145000800000000000000003545000840
:1000C000394500083D450008414500084545000800
:1000D000494500088F4300084D4500085145000878
:1000E00055450008594500080000000000000000C8
:1000F0000000000000000000000000000000000000
:10010000000000005D450008000000006145000897
:100110000000000000000000654500086945000877
:100120006D450008714500087545000879450008CF
:100130007D450008000000000000000000000000F5
:100140008145000885450008894500088D4500085F
:100150009145000895450008994500089D4500080F
:10016000A1450008A5450008A945000800000000B9
:10017000AD450008B1450008B54500080000000085
:10018000B9450008BD450008C14500082DE9F04FFC
:1001900082460FF25860A5B015461E46D0E90023EE
:1001A000CDE9122303AF00207960B8620DF1500948
:1001B00000E045440020ADF8020012AB4FF0FF32E2
:1001C00029460DF1020001F0AEF88046B8F1010FAA
:1001D00008DA2878B0F1010868EB08086FEA08002F
:1001E0004FEAD078BDF8020025280CBFA8F1010B1A
:1001F000C346BBF1010F0EDB2C4614F8011B7868D7
:10020000D0470028786000F0F880B86A401CBBF145
:10021000010BB862F1D1BDF80200252807D10020FA
:1002200038617861B861F8613862786205E0002869
:10023000BFD1B86AE2E240F0010015F8011F2029A1
:10024000F9D023290DD02B2904D02D2906D030290F
:100250000AD00CE040F0020080B2EEE740F004006B
:10026000FAE740F00800F7E740F01000F4E72A2929
:100270000ED13168316051F8042B3160002A3A63A5
:1002800004D5514240F00400396380B26D1C13E084
:10029000002139630BE0396B6FF00043994205D0C0
:1002A00001EB810302EB4301303939636D1C2A787D
:1002B000A2F130010A29EED329782E2903D04FF07C
:1002C000FF31F9621FE015F8011F2A2907D13168B3
:1002D00031606D1C51F8042B3160FA6213E000218B
:1002E000F9620BE0F96A6FF00043994205D001EB27
:1002F000810302EB43013039F9626D1C2A78A2F1C7
:1003000030010A29EED3B8860FF2E840297801F0CF
:100310001BF808B115F8010B8DF842009DF842005A
:10032000682802BF29786829622005D06C2804BF9C
:1003300028786C2803D171208DF842006D1C14A818
:10034000F86015F8014BB4F125002AD01C3800F0F4
:10035000DB80001F022840F2D780133800F0FB80BA
:10036000093800F0D180801E00F06581401E00F049
:100370003C81401E022840F2C780001F00F03581FA
:10038000401F00F09280401E00F0E580401E37D0F4
:10039000C01E0BD0801E00F0DE80C01E00F0DB808F
:1003A0006CE125208DF85000012070E19DF842009D
:1003B0006C283068306016D050F8048B3060C7F875
:1003C0000880FC6A002C04D5404600F0C9FF0446B2
:1003D00007E022460021404600F0DEFF08B1A0EB16
:1003E00008047C6154E150F8042B306002A95046A7
:1003F00000F03EFA002840F14B814FF0FF30FDE164
:1004000031683160002251F8040B31604FF03C0E2E
:100410000021CDE9020114A8B860DDE90201914292
:10042000FC6808BF904201D1FA6AC2B100F00F0324
:100430003033DBB23A2BA8BF2733AEF101020009FB
:10044000A354964640EA017009090022914208BF70
:10045000904204D0BA6804EB0E039A42E6D304EB50
:100460000E01B960CEF13C00F96A7861884207DA82
:10047000081AF8614FF6EF71B88E0840B88607E1A8
:10048000002940F1058197F8341001F0140110297A
:1004900040F0FE80396B3A69891AFA69891A081A9C
:1004A0000128C0F2F580F861F2E09DF84200622870
:1004B0001AD0682806D06A280CD06C281CD0712865
:1004C00008D019E03068306050F8041B3060B86A1A
:1004D0000880DDE03068306050F8042B3060B86A86
:1004E000C117C2E90001D3E03068306050F8041B46
:1004F0003060B86A0870CBE03068306050F8041B98
:100500003060B86A0860C3E03068C01D20F00702A0
:100510003260D2E9000108323260CDE902010029DF
:1005200002D538692D2109E0B88E810702D53869D6
:100530002B2103E0C00705D53869202109F80010F8
:10054000401C386114A839690844B860214602A8E3
:1005500000F09AFB9CE09DF842006C280DD07128B9
:1005600018BF6A2809D13068C01D20F00702326028
:10057000D2E900010832326005E03168316051F89B
:10058000040B31600021CDE902019DF8420068288A
:1005900003D1DDE9020180B20BE0622803D1DDE97D
:1005A0000201C0B205E0742818BF7A2804D1DDE941
:1005B00002010021CDE9020197F83400000731D58E
:1005C000DDE902230020834208BF82422AD044F0A2
:1005D0002000782826D13869302109F80010401C05
:1005E000411C396109F800401CE09DF84200314689
:1005F00000F007F9CDE90201DDE9022300218B4279
:1006000002DA38692D2109E0B88E810702D53869F0
:100610002B2103E0C00705D53869202109F8001017
:10062000401C386114A839690844B860214602A802
:1006300000F0A4FA2CE09DF842006C2809D00120BB
:1006400038613068306050F8041B30608DF850100D
:100650001EE03068306001AA50F8041B3060ADF82D
:1006600004100020ADF8060002A94FF0FF30F86238
:10067000504600F0FDF800280AD5BEE625208DF88A
:100680005000012038611CB189F801400220386116
:10069000386B3969401AF969401A7969401A396A20
:1006A000401AB969401A796AA0EB010897F834003A
:1006B000400711D42020B8F1010F8DF800000BDBAA
:1006C000444601236A4602A9504600F007FE00286E
:1006D0007FF493AE641EF4D1D7F810B0BBF1000FD5
:1006E00014AC0DD014F8011B7868D047002878604E
:1006F0003FF483AEB86A401CBBF1010BB862F1D184
:1007000030208DF80000FC69012C0ADB01236A46C9
:1007100002A9504600F0E2FD00287FF46EAE641E90
:10072000F4D1D7F814B0BC68BBF1000F0DD014F8A9
:10073000011B7868D047002878603FF45EAEB86A45
:10074000401CBBF1010BB862F1D130208DF80000E4
:100750003C6A012C0ADB01236A4602A9504600F0DC
:10076000BDFD00287FF449AE641EF4D1B8687969F4
:10077000D7F818B04418BBF1000F0DD014F8011BC6
:100780007868D047002878603FF437AEB86A401CDC
:10079000BBF1010BB862F1D130208DF800007C6A0A
:1007A000012C0ADB01236A4602A9504600F096FD9F
:1007B00000287FF422AE641EF4D197F8340040077D
:1007C0007FF5F8AC2020B8F1010F8DF80000FFF69E
:1007D000F1AC01236A4602A9504600F07FFD0028D3
:1007E0007FF40BAEB8F10108F3D1E3E400000000A0
:1007F00000000000686A6C747A4C000025B0BDE807
:10080000F08F622826D068281DD06A2808D06C286E
:1008100027D0712804D0742823D07A280CD020E067
:100820000868C01D20F007000860D0E900230830E8
:1008300008601946104670470A680A6052F8040BAF
:100840000A60002170470A680A6052F8040B0A60C7
:1008500000B20BE00A680A6052F8040B0A6040B26A
:1008600004E00A680A6052F8040B0A60C117704776
:100870002DE9F44F0D4694B0D5F830A0BAF1000F31
:10088000804648BF6FF0004A00F0B2FD696B401827
:1008900001900FF67820D0E90023CDE9022395F8E6
:1008A0003800400702D40198412805D240200DF1BC
:1008B00010090190002609E000F0A0FD5FEA0009A0
:1008C000F8D14FF0FF3056E1AAEB040ABAF1010F5C
:1008D000C0F2CE801498018802AA0DF1010000F048
:1008E000E5FD0028044600F1DE801498008810B968
:1008F000641E00F1D880A245C0F2BA8068690199EF
:100900002218914280F0A2806E634042296A401A08
:10091000A969401A696A401AE969401AA96A461A1F
:1009200095F83800400710D42020012E8DF80000E3
:100930000BDB374601236A462946404600F0CEFCD1
:10094000002840F0B0807F1EF4D1D5F814B0BBF180
:10095000000F4F460DD017F8011BA868C0470028AC
:10096000A86000F0A080E86A401CBBF1010BE862BF
:10097000F1D130208DF800002F6A012F0ADB01230E
:100980006A462946404600F0A9FC002840F08B80CA
:100990007F1EF4D1D5F818B0EF68BBF1000F0CD072
:1009A00017F8011BA868C0470028A8607BD0E86A38
:1009B000401CBBF1010BE862F2D130208DF8000041
:1009C0006F6A012F09DB01236A462946404600F081
:1009D00085FC002867D17F1EF5D1E868A969D5F8A4
:1009E0001CB04718BBF1000F0CD017F8011BA8680A
:1009F000C0470028A86056D0E86A401CBBF1010B34
:100A0000E862F2D130208DF80000AF6A012F09DBD7
:100A100001236A462946404600F060FC002842D186
:100A20007F1EF5D195F8380040070DD52020012E06
:100A30008DF8000008DB01236A462946404600F095
:100A40004DFC80BB761EF6D100266E612246686999
:100A50000DF10101484400F037FD68692018686114
:100A60001498801C1490801E008800287FF42CAFFE
:100A7000686B6969401A296A401AA969401A696A4B
:100A8000401AE969401AA96AA0EB010A95F83800F2
:100A9000400710D4BAF1010F0DDB5446A86820219D
:100AA000C047A86010B94FF0FF365DE0E86A401C0F
:100AB000641EE862F2D16B694A462946404600F05E
:100AC0000DFC0028EFD12C6A012C0ADBA86830212C
:100AD000C0470028A860E6D0E86A401C641EE862AF
:100AE000F4D1AB69EA682946404600F0F7FB0028DC
:100AF000D9D16C6A012C0ADBA8683021C0470028D4
:100B0000A860D0D0E86A401C641EE862F4D1E868AE
:100B1000A969EB6942182946404600F0DFFB00282E
:100B2000C1D1AC6A012C0ADBA8683021C04700287B
:100B3000A860B8D0E86A401C641EE862F4D195F859
:100B4000380040070ED5BAF1010F0BDBA868202151
:100B5000C0470028A860A6D0E86A401CBAF1010A84
:100B6000E862F3D16E616E6304A881451CBF4846FC
:100B700000F0E6FC304615B0BDE8F08F2DE9F343F8
:100B8000054608462F696F2808BF082405D041F0A4
:100B90002001782914BF0A2410243C26D5E900231B
:100BA000642818BF69289046994606D100218B42D7
:100BB00003DAD8F1000869EB49090020814508BF34
:100BC00080450CD1286B50B9082C38D195F83800E5
:100BD000000734D530203B2687F83B002FE0701EFD
:100BE00000900646404649462246E31700F0E8FCDE
:100BF00002F13000C0B23A2803DB9DF804105139ED
:100C00000818B855494640462246E31700F0D8FC7C
:100C1000804689460020814508BF804503D0E868AA
:100C2000B9198842DBD3082C09D195F838000007A0
:100C300005D5B85D302802D0761E3020B855B919D8
:100C4000E960C6F13C00296BA861884208DA081AFD
:100C500028624FF6EF71288F08402887BDE8F3839C
:100C600000290ED595F8381001F01401102908D18B
:100C7000696B6A69891A2A6A891A0E1A012EA8BF35
:100C80002E62BDE8F38300002DE9F24F04468EB0DA
:100C9000D4E90001CDE9020104AF9DF8380040F02D
:100CA000200BBBF1610F0AD0206B002848BF062043
:100CB00004D408BFBBF1670F01D101202063616834
:100CC000C1F30A5040F2FF7290421CD1080304BFE6
:100CD0002068002809D10320A0619DF83800613800
:100CE0001A2835D30FF2386108E00320A0619DF87F
:100CF000380061381A2828D30FF21C61E0680322FB
:100D000000F0E2FBBDE1012815DA204600F0CFFC3F
:100D1000012810DB00250020BBF1610F1FD1E16825
:100D200030220A708A1CE2609DF83820612A0CBFCC
:100D3000782258220FE0626840F2FE3161F31E52C1
:100D4000451A62604FF0FF30E6E70FF2C851D5E771
:100D50000FF2C851D2E74A706169891C616110B90C
:100D60000026002584E1BBF1610F40F09880206BE4
:100D7000D4E900AB00284CBF2126461CDDE9020166
:100D80000022002300F0B6FC36B23ABF8BF00040E0
:100D9000CDE902A0CDE902AB06F101082D1FB8F1A3
:100DA000010F8DF810200DF1110736DBDDE902018E
:100DB0000022002300F0B6FC2FD21C2102A800F074
:100DC000C9FCDDE9020100F04FFDA8F10708B8F108
:100DD000010F814609DB00F073FD02460B46DDE999
:100DE000020100F085FDCDE90201F81D072105E0B3
:100DF00009F00F0200F8012D4FEA2919B9F1010F8E
:100E000001DB491EF4D5491E5CBF002200F8012D0C
:100E1000F9D5C71DB8F1010FC8DA0DF11100391A63
:100E2000B142B8BF0E4636B230000DF111072FD4D3
:100E3000884206DA04A9014449780829A8BF0F218D
:100E400000DA002104AA024400E0761E12F80139FB
:100E5000401E8B42F9D00F2904D104A901444A78DD
:100E6000521C4A70002802D504AF761C2D1D36B2E4
:100E7000701E0DD439180A783032D2B23A2A03DB08
:100E80009DF838303A3B9A18401E01F80129F2D5F6
:100E9000206B002840F1EC80701E2063E8E0DDE963
:100EA00002010022002300F025FC3CBF81F000413C
:100EB000CDE902012DB247F2975068434B49DFF864
:100EC000309190FBF1F52DB2C5F1070ABAF1010F8F
:100ED00090461CDBDDE902675FEACA7007D542462F
:100EE0004B463046394600F0C3FD06460F464046A5
:100EF000494642464B464FEA6A0A00F0B9FDBAF14C
:100F0000000F80468946E7D1CDE9026724E0CAF1A7
:100F1000000A0026374F14E05FEACA7007D5424640
:100F20004B463046394600F0A3FD06460F46404684
:100F3000494642464B4600F09BFD4FEA6A0A80460E
:100F40008946BAF1000FE7D1DDE9020132463B469E
:100F500000F060FECDE90201BBF1660F216BDFF806
:100F600098900CBF05F10A0006204618142EA8BF61
:100F7000132630208DF810000DF11107012E3DDBF6
:100F8000DDE9020100F086FC07F1080104220A23D2
:100F9000B0FBF3F303EB8307A0EB4700303001F81D
:100FA000010C0A20B3FBF0F000EB8007A3EB470332
:100FB0003033521E01F8023DE9D1083E012E01F105
:100FC0000807DBDBDDE9020100F064FC00F082FCD5
:100FD00002460B46DDE9020100F08AFC00224B4686
:100FE00000F046FDCDE90201CAE700BFA08601007E
:100FF000000024400000F03F84D797410DF111001C
:10100000381A0DF1110702E0401E6D1E7F1C397861
:101010003029F9D0BBF1660F08BF691C04D0BBF1C1
:10102000650F0CBF01210021226B8E1836B2B04231
:10103000B8BF064636B231001AD4814204DA785C71
:101040003528A8BF392000DA30207A18521E00E077
:10105000761E12F80139491E8342F9D0392802D18F
:10106000785C401C7854002902D57F1E761C6D1CCC
:101070002DB29DF83810009533B23A46204600F064
:1010800003F80FB0BDE8F08F2DE9F04786B00646B3
:101090008A4690461D4600F006FF012D406A376BD8
:1010A00090F8009002DA01250FF278284AF020002B
:1010B000BDF93840662808BF641C12D0672878D173
:1010C00014F1040F7BDBBC4279DA96F83800641C1B
:1010D000000702D4BD42B8BF2F4624B23F1B48BF11
:1010E000002724B2F068B169012C23DA4A1C3023AE
:1010F0004354012F03DA96F83800000703D5F0684F
:1011000000F80290521CE742B8BF7C4224B2604211
:101110007062E719AF42B261B8BF3D46F068B3698B
:101120002DB2F5612A464146184400F0CDF9781BEE
:10113000B062BCE022469542084416DA2A4641468F
:1011400000F0C2F9B1696918601B012FB1617062CA
:1011500003DA96F83800000705D5F06800F801902A
:10116000F069401CF061B762A1E0414600F0ACF9C3
:10117000B06920182D1B012F03DA96F838100907E3
:1011800003D5F16801F80090401CB0612DB2AF4268
:10119000B8BF3D46F068B3692DB22A4608EB04019A
:1011A000184400F091F9B0692818B061781B70629A
:1011B0007DE0BAF1610F14D14FF0700A16E0BD4224
:1011C00004DA96F83810090758BF2F467F1E48BF2B
:1011D0000027BAF1670F14BF4FF0450A4FF0650AB8
:1011E00004E0BAF1410F08BF4FF0500AB169F3684B
:1011F000481CB061012F18F8012B5A5403DA96F8F5
:101200003810090717D5F168431CB36101F8009045
:10121000012F10DB6D1E2DB2AF42B8BF3D46F06806
:101220002DB22A464146184400F04EF9B0692818FC
:10123000B061781B7062F068B1690144200081F8E8
:1012400000A004D42B20487001F1020804E02D22F4
:101250004A7001F102086442002502AF08E00A2248
:10126000684600F039FE019807F8010B6D1C009CE0
:1012700021B20129F3DA022D06DA4AF020006528AE
:1012800004BF302008F8010B4DB9302008F8010BDD
:1012900007E06D1E02A8405D303008F8010B012DFB
:1012A000F7DAF068B1690844A8EB0000F06196F83D
:1012B000380000F0140010280DD17069B1690818C9
:1012C000716A0818F1690818B16A0818716B8842C8
:1012D000BCBF081A306206B0BDE8F087F8B5044616
:1012E0000D4616461F46002077B116F8011BA86868
:1012F000A047A86030B1E86A401CE86200207F1E69
:10130000F3D1F2BD4FF0FF30F2BD0000000000004D
:10131000000000006E616E004E414E00696E660076
:10132000494E46003000F8B504460D4616461F46A5
:1013300000F0DAFD3B4632462946204601B0BDE8C2
:10134000F04000F0E8BD00000278C9B28A421AB14C
:101350001CBF10F8012FF9E718BF002070470000EC
:1013600000F10103810704D010F8011B89B1810746
:10137000FAD10268B2F10131914311F0803F04BF0C
:1013800050F8042FF6E710F8011B11B110F8011BFB
:10139000FBE7C01A70470000C9B2830706D0521E8F
:1013A00022D310F8013B9942F7D11FE0083A13D33A
:1013B00002F1040241EA012141EA014150F8043BF3
:1013C000121F21BF4B40A3F1013C2CEA030C1CF07F
:1013D000803FF3D0C9B2001F083210F8013B521E03
:1013E00028BF91EA030FF8D818BF0120401E7047AC
:1013F00080B500F079FD012002BD000070B5054602
:1014000005F10F00C408AFF30080E400A54232D21A
:10141000082C04D2082402E0083000F091F8224899
:10142000026811000CD1011D0A6802B31368A342BF
:1014300038BF111DF8D310E01D68A5420DD2191D4B
:101440000B68002BF8D11268011D00E0191D0B6814
:1014500093420CD01D68A542F8D361B10D682A688B
:10146000A2F10803A3420AD26A680A600FE000F002
:1014700075FD0028D0D1AFF30080002070BD2B197E
:101480000B60121B6E685E600B681A602C60096846
:1014900000291DBF4A68002A091D00210160AFF321
:1014A000008005F1080070BD2C08002070B50446CE
:1014B0000D46164600F018FD324629462046BDE886
:1014C000704000F01BBD000062B38B0708D0521EB5
:1014D00011F8013B00F8013B00F024808B07F6D1A6
:1014E000830740F0208000BF103A07D330B4B1E842
:1014F0003810103AA0E83810F9D230BC530724BF96
:10150000B1E80810A0E8081044BF51F8043B40F8C7
:10151000043BD20724BF31F8022B20F8022B44BF32
:101520000B7803707047083A07D3B1E80810083AFF
:1015300040F8043B40F804CBF7D25307E4E700003F
:1015400000B9704738B5A0F108042068082833D3E3
:1015500010F0070F30D1AFF300801848416809B18F
:101560008C4203D26160446017E019464B680BB1AE
:10157000A342FAD30B68CD18AC421BD3A54204D1C9
:101580002268D2180A600C4607E04A681AB123683C
:1015900023449A420ED362604C60616851B1226864
:1015A000A3188B4206D100230360086880182060CE
:1015B00048686060AFF3008031BD00002C08002057
:1015C0001B4213D1094236D12AB18446B0FBF2F056
:1015D00002FB10C2704700F0D7BCFCD300220023EE
:1015E00070470B000200002100207047904271EB11
:1015F000030CF6D370B5B1FA81F4B3FA83F52C1B62
:10160000A340C4F1200532FA05F63343A2405FF04F
:101610000046E64002E05B085FEA3202841A71EBA2
:10162000030524BF204629467641F4D302000B006F
:101630003000002170BD012ACFD970B5140C20D024
:10164000B1FA81F4B2FA82F5C4F120046419B4F15C
:101650002006D6D3B2405FF00044F440002502E0FB
:1016600052085FEA3303C61A71EB020E24BF3046FC
:10167000714664416D41F3D302000B002000290044
:1016800070BD0C46B1FBF2F102FB11452D0445EA99
:101690001045B5FBF2F402FB145580B240EA054553
:1016A000B5FBF2F002FB105240EA044070BD30B4CA
:1016B000436803F000420121C3F313034360002B8E
:1016C00004BF0368002B08D10DE00368DD0F45EA75
:1016D000440444605B000360491E4468E302F4D59F
:1016E000C4F31303436043681A434260084630BCA6
:1016F000704700004FF4001C1CEB410F94BF1CEB23
:10170000430F09E041EA030C50EA4C0C52EA0C0C7E
:1017100003D2994208BF9042704714BF8B42824265
:10172000704700004FF4001C1CEB410F94BF1CEBF2
:10173000430F09E041EA030C50EA4C0C52EA0C0C4E
:1017400003D28B4208BF8242704714BF9942904235
:101750007047000070B504460D466068C0F30A503B
:1017600040F2FF71884207D16068000304BF20681F
:10177000002817D0022070BD20B92046FFF797FF40
:10178000012866DA012D0FDB40F2FF71091A8D4244
:101790000AD3606800284CBF9FED2F0B9FED300BE4
:1017A00084ED000B012070BD4142A942616806DA58
:1017B0006FF31E51401941EA0050606040E0401E46
:1017C00063684519012205F1350062F31F5335287E
:1017D00001F00041636003D361600020206070BDB0
:1017E000002015F11F0F04DA206823600022203545
:1017F00062606A4212D0401E25688041C2F1200317
:10180000C0439D4045EAD07025686668D54006FA19
:1018100003F32B4323606368D340636062680A4329
:10182000B0F1004F626003D80DD12078C0070AD50F
:101830002068401C2060206828B96068401C6060F7
:101840004FF0FF3070BD6068884204BF20680028F8
:10185000F6D1002070BD00BF000000000000F0FFC6
:10186000000000000000F07FF446400D40EAC12077
:10187000490006D200F014F8004248BF6FF0004063
:10188000604700F00DF84FF0004188428CBF0846D9
:1018900040426047400D40EAC120490080F00D8081
:1018A00040F00040490DA1F58061491C05D4D1F1FB
:1018B0001F0154BFC840C01770474FF00000704769
:1018C000010040F10980F446404200F005F851F073
:1018D00000416047010000BF09D0B0FA80F18840A4
:1018E000C91CC1F58461090501EBD0214005704791
:1018F000F0B44FF0004591EA030F44BF6B4000F095
:1019000045BB00BF841A71EB030604D26E40001B76
:10191000B141121973414FF4001C1CEB410F34BF4D
:101920007CEB430684E00C0DA4EB1356362E7DDCD5
:10193000012E43DC45EAC32343EA525312BFD202CD
:1019400092025B08240545EAC12141EA5051D2EBDD
:10195000C020994125D407D1B0FA80F610FA06F1DB
:1019600064D00020203608E0B1FA81F6B140C6F11B
:10197000200220FA02F21143B0404FEAF474B4EBB3
:10198000465434F001064FEA74040AD8D6F500161E
:10199000760D04F00044F04061FA06F25040F14048
:1019A0004840C00A40EA415021F0004128BF5FEAA8
:1019B000500550F1000044EBD12137E045EAC32344
:1019C000DB0A45EAC121C90AB6F120050EDD42EA6B
:1019D0000242120CC5F1200603FA06F6EB4042EA79
:1019E00006056D42984161F100010DE062FA06F5CD
:1019F000F240554063FA06FC82EA0C02F3405A407A
:101A00006D42904161EB030111F4801F05D1641E0A
:101A1000620502D06D004041494121F48011430824
:101A200075F1004350F1000041EB0451F0BC7047E8
:101A30001CEB410F15D223F0004352EA43060BD0B2
:101A40004FEA4C0CBCEB410F04D80C0D661E342E33
:101A5000B7DDEBE7801A994150EA410608BF002143
:101A6000E4E708BF1CEB430F28BF6FF00001DDE780
:101A7000B0B581EA030C0CF0004C40F2FF7515EA9A
:101A800011541DBF15EA1357AC42AF4239E0E419B7
:101A900023EA455343F48013C90241F0004141EA6F
:101AA000505EC7021100A7FB020200284FF00000A1
:101AB000EEFB01204FF00001E3FB072118BF42F0CD
:101AC0000102401800214941E3FB0E01A4F58064A6
:101AD0000F0302D252004041494154F101046CDD30
:101AE000470872F1004250F1000051EB0451A1F59A
:101AF00080115CBF41EA0C01B0BD4CEA05510020E9
:101B0000B0BD05EA1357AC4214BFAF4241E050EA02
:101B1000410E1CBF52EA430E02E061460020B0BDF8
:101B200024423C441BD15FEA070EF6D0090302BFF2
:101B300001460020AEF1140EB1FA81F7AEEB0704B6
:101B400001FA07FE0C37C7F1200100FA07F7C84079
:101B50004EEA000E23EA455343F48013A2E733F024
:101B60000043B3FA83F704BFB2FA82FE77440B3F17
:101B7000E41BB7F1200E2FBF02FA0EF3BB40C7F1F2
:101B8000200E22FA0EFE38BF43EA0E03BA40641C50
:101B900082E750EA410E14BF52EA430E6FF0000193
:101BA0004FF4001717EB430F8ABF194617EB410F8D
:101BB000B5E74CEA05510020B0BDD4F10104B4F101
:101BC00020070FDAC4F12007520828BF42F00102B3
:101BD00010FA07F501FA07F7E1BF2A43E04038435E
:101BE000E1400FE0352C98DCC7F1200452EA4002B6
:101BF00020FA07F218BF42F0010231FA07F0A140C3
:101C00000A43002172F1004250F1000051EB0C0137
:101C1000B0BD00002DE9F04140F2FF7581EA030CF0
:101C20000CF0004C15EA11541DBF15EA1357AC42D5
:101C3000AF42E9E0BC41C1F31301C3F31303801ABF
:101C4000994143F4801304D2641E40004941801836
:101C50005941C90241EA5051B1FBF3F603FB161199
:101C6000A2FB0675D7EBC020A94102D2761E8018D0
:101C70005941C90241EA5051B1FBF3FE03FB1E1169
:101C8000A2FB0E75D7EBC020A94103D2AEF1010E25
:101C900080185941890241EA9051760546EA8E2E14
:101CA000B1FBF3F603FB1611A2FB0675D7EB802000
:101CB000A94102D2761E80185941C90241EA505109
:101CC0004EEA060EB1FBF3F603FB1611A2FB0675F6
:101CD000D7EBC020A94102D2761E80185941C90213
:101CE00041EA5051B1FBF3F703FB1711A2FB073593
:101CF000D3EBC020A94167F100070CBF004247F0B9
:101D0000010766F3D5274FEA1E31B80814F5806441
:101D100014DDBD0775F1004250EB0E5051EB04513C
:101D200011F5801F5CBF41EA0C01BDE8F0814CF069
:101D30007F6141F0E0410020BDE8F081BD076D0802
:101D400040EA0E5041F48011D4F10104B4F12006B0
:101D50000ADAC4F120060200E04001FA06F3E1408D
:101D60001843B24015430EE0342C14DCC6F12004B5
:101D700045EA40056D0820FA06F2154321FA06F0FF
:101D8000A1400D43002175F1004250F1000051EBDC
:101D90000C01BDE8F08100205FEA0C01BDE8F08194
:101DA000CFB992185B41B3FA83F704BFB2FA82F657
:101DB000BF190B3FB7F120062FBF02FA06F3BB4055
:101DC000C7F1200622FA06F638BF3343BA401CB1E9
:101DD000E419641E2FE77F4231F00041B1FA81F42B
:101DE00004BFB0FA80F6A4190B3CB4F120062FBF53
:101DF00000FA06F1A140C4F1200620FA06F638BF29
:101E00003143A0403C1B16E7AC421ABF05EA13570A
:101E1000AF4214E050EA41061CBF52EA4306BFE756
:101E200050EA4107304661461CBF41EA0551BDE812
:101E3000F08152EA430C08BFC143BDE8F0810020A5
:101E40004FF4001616EB410F98BF16EB430F08BF77
:101E500016EB410F24BFC14305E016EB430F0CBF47
:101E600061464CEA0551BDE8F081000080B5134899
:101E700000F0F6F80FF24C020FF2440101604262EA
:101E800041600FF24402826381600FF24402C1603C
:101E90000161416181618162C16201634163C26329
:101EA0000164416401BD10B5044800F0D9F804464E
:101EB000206808B9FFF7DAFF204610BD4400002073
:101EC000000000002E00000066616C7365000000D9
:101ED000747275650000000091FBF2F303FB1211B0
:101EE000C0E900317047000080B5DFF80C0000F059
:101EF000B7F8806902BD0000D400002030B430B9CA
:101F00000FF24800D0E90045C2E900451BE001702E
:101F1000012030BC704730B431B90FF23800D0E93D
:101F20000045C3E900450EE01AB930BC6FF001006E
:101F3000704708B10A7802800978481E804130BC99
:101F4000C043C00F7047002030BC70470000000045
:101F500000000000000000000000000007490868C1
:101F600008B1002070470648C008C0000860054955
:101F7000C908C900091A0160704700BF380800206D
:101F8000470500204007002070470000841A71EBCD
:101F9000030603D2001BB141121973414FF4001C18
:101FA0001CEB410F34BF7CEB430443E00C0DA4EB6E
:101FB0001356352E50DC45EAC323DB0A45EAC1211E
:101FC000C912B6F120050DDD63FA05F6EB4086EA8D
:101FD0000305124218BF45F00105C01851F1000178
:101FE0000CD213E062FA06F5F2405540F3415A4034
:101FF000B340F3405A408018594107D349085FEA7B
:1020000030005FEA350528BF45F0010501F5801174
:10201000420875F1004250F1000041EB0451F0BC60
:102020004FF4001C1CEB410F38BF70470020090D16
:10203000090570471CEB410F10D252EA43060BD042
:10204000BCEB410F05D80C0DAB43661E342EB5DD3D
:1020500002E0AB4380185941F0BC7047F0BC7047B8
:10206000704700002DE9F843040043D02078DFF8E2
:102070005856DFF84866C00626D5B06810F00C0F39
:102080003AD13068800702D5A069002832D0306884
:1020900000074EBF30686868000900F0F001206A50
:1020A000814206D200F0CEFA002823D100F0C8F910
:1020B00005E000F0C5F9206A00F0C4FAD0B900F0DC
:1020C00055FAB26800F048FA2078C00767D500F0EA
:1020D000B3F9082808D000F0AFF90C2802BFF06867
:1020E00000F0030003282AD13068800357D56068C8
:1020F000002854D101209DE1A0690028306810D04B
:1021000040F0010000F0AEF907463068800705D4C2
:1021100000F0F0FAC01B0328F7D388E100F090F933
:10212000D2E74008400000F09DF90746306880077C
:10213000CAD500F0DFFAC01B0328F7D377E1606847
:10214000B0F5803F06D0B0F5A02F306806D140F43E
:1021500080203060306840F4803005E020F480302A
:102160003060306820F480203060606858B100F042
:10217000C1FA07463068800311D400F0BBFAC01BD7
:102180006528F7D353E100F0B5FA074630688003BD
:1021900005D500F0AFFAC01B6528F7D347E12078DA
:1021A000800719D500F048F9042808D000F044F958
:1021B0000C2802BFF06800F00300022822D130682A
:1021C000400502D5E068002894D07068216920F0AD
:1021D000F85040EA016070602078000741D56069DE
:1021E000002868682ED040F00100686000F082FA94
:1021F00007466868800734D400F07CFAC01B0328C7
:10220000F7D314E1E068002830680DD040F4807006
:1022100000F028F9074630684005D6D400F06AFA85
:10222000C01B0328F7D302E120F4807000F01AF9F4
:10223000074630684005CFD500F05CFAC01B032884
:10224000F7D3F4E040084000686000F053FA074616
:102250006868800705D500F04DFAC01B0328F7D346
:10226000E5E0207840075FD5B06DC0004FF0000872
:102270000AD4B06D40F08050B0654FF00108B06DE9
:1022800000F0805000900098DFF84094D9F80000EA
:10229000C00512D4D9F8000040F48070C9F80000DD
:1022A00000F028FA0746D9F80000C00505D400F070
:1022B00021FAC01B0328F6D3B9E0A068012805D095
:1022C0000528286806D140F004002860286840F0FE
:1022D000010005E0400840002860286820F0040064
:1022E000286041F28939A06858B100F003FA074626
:1022F0002868800711D400F0FDF9C01B4845F7D3CA
:1023000095E000F0F7F907462868800705D500F04A
:10231000F1F9C01B4845F7D389E0B8F1000F03D0AD
:10232000B06D20F08050B0652078800621D5606ABD
:102330000028A8680ED040F00100A86000F0DAF98B
:102340000746A868800714D400F0D4F9C01B0328FE
:10235000F7D36CE040084000A86000F0CBF90746D6
:10236000A868800705D500F0C5F9C01B0328F7D37E
:102370005DE0A06A00285CD0B16801F00C010C2976
:102380003FF4B8AE0228306820F08070306037D15A
:1023900000F0B0F907463068800105D500F0AAF9D1
:1023A000C01B0328F7D342E0206B616B401E09027B
:1023B00041EA0010E16A0843E16B891E0905490DF5
:1023C00040EA4150216C891E090601F07E41084314
:1023D000A16B40EAC160F060306840F0807030600E
:1023E000F06840F08070F06000F084F907463068D3
:1023F00080011ED400F07EF9C01B0328F7D316E03D
:102400003068000103D4F06880088000F060F06854
:10241000DFF8BC120840F06000F06CF90746306845
:10242000800106D500F066F9C01B0328F7D303200E
:1024300000E00020BDE8F283B06800F00C007047B7
:10244000306840F0080030603068216A20F0F00009
:10245000084330607068E16920F47F4040EA012061
:1024600070607047306000F045B92DE9F04104001C
:1024700088464AD0DFF85C62306800F007004045CB
:1024800002D200F05FF840D12078DFF83072C00748
:102490002AD56068032802D13968890108E002283A
:1024A00002D13968890303E00028396802D189071D
:1024B00002D42AE0490528D5B968890840EA810094
:1024C000B86000F017F90546B868616800F00C00C4
:1024D000B0EB810F08D000F00DF9401B41F28931BB
:1024E0008842F1D303202BE02078800705D5B86817
:1024F000A16820F0F0000843B860306800F00700E1
:10250000804504D200F01EF801D0012018E02078A8
:10251000400705D5B868E16820F4E0600843B8607A
:102520002078000706D5B868216920F4605040EA99
:10253000C100B86000F01AF8BA6800F00DF8002089
:10254000BDE8F0813068C00848EAC00030603068FB
:1025500000F00700404570475F49C2F30312895CF1
:10256000C84057490860002000F0CAB853498B683A
:102570000022002013F00C0F09D08B6803F00C032D
:102580000C2B02BFCB6803F00303012B13D10A68A5
:10259000120704D44B4A1268C2F3032202E00A680D
:1025A000C2F303124E4B53F822208B6813F00C0F2A
:1025B0000ED110460CE08B6803F00C03042B08BF0F
:1025C000484805D08B6803F00C03082B08BF464829
:1025D0008B6803F00C030C2B1ED1C868CB68C3F3C7
:1025E00002135B1C00F00300022802D0032802D073
:1025F00005E03C4800E03C48B0FBF3F001E0B2FBF2
:10260000F3F0CA68C968C1F34161C2F30622491CEC
:1026100050434900B0FBF1F070472948006870470B
:1026200027482E4A006812683049C2F3022206E0A9
:1026300023482A4A006812682C49C2F3C222895CE6
:10264000C840704770B52A4E82B0054630680024F5
:10265000C00002D500F068F80EE0306840F080500D
:102660003060306800F080500090009800F05CF816
:10267000316821F080513160B0F5007F04D1812DA7
:102680000DD3A12D0AD305E0812D28BF032406D246
:10269000802D01D1022402E0702D00D101240D48CB
:1026A0000168C90844EAC1010160006800F0070040
:1026B000A04201D0012076BD002076BD001002406E
:1026C0000000002094100240901002400070004072
:1026D000FFFFEEFE00200240B44200080810024056
:1026E000C44200080024F40000127A00B04400083C
:1026F0005810024001480068704700BF34080020AD
:1027000010B50446074800684FF47A71B0FBF1F049
:1027100000F034F9002221464FF0FF3000F002F9BA
:10272000002010BD00000020DFF8AC01006800F4BC
:10273000C0607047DFF8A011B0F5007F086800F4B2
:10274000C0601CD1B0F5007F22D00868DFF88C2172
:1027500020F4C06040F400700860DFF88401006875
:10276000B0FBF2F03222504300E0401E10B14A6943
:102770005205FAD4486940050AD503207047B0F5E0
:10278000806F05D0086820F4C06040F48060086065
:1027900000207047CB430728DFF84C2139D8DFE809
:1027A00000F0041019202738382E106821F48043D7
:1027B0001843106021F42041506888435060002085
:1027C000704790680843906021F01001D0688843FA
:1027D000D060F4E7106908431061506918405061F7
:1027E000EDE7906908439061D0691840D061E6E751
:1027F000106A08431062506A18405062DFE701F027
:102800000B00916B01439163D16B21EA0000D0630F
:10281000D5E7012070470000CB430728DFF8C82028
:1028200039D8DFE800F0041019202738382E506816
:1028300021F420431843506021F4804110688843FC
:10284000106000207047D06821F010010843D0606C
:10285000906818409060F4E750690843506110692F
:1028600018401061EDE7D0690843D06190691840C5
:102870009061E6E7506A08435062106A184010629F
:10288000DFE701F00B00D16B0143D163916B21EACB
:1028900000009063D5E701207047000011480168EF
:1028A00041F4806101607047086820F0040008600E
:1028B000704709490A68D208D20042F002020A6051
:1028C00001280A490A6842F004020A600FBF30BFBB
:1028D00040BF20BF20BFE7E70070004040420F002C
:1028E00000000020087000402070004010ED00E063
:1028F0000901002806D5314A00F00F00104400F805
:10290000041C70472E4A115470472E490A684FF62E
:10291000FF0300021A4000F4E06010432A4A10430B
:102920000860704738B5274B1B68C3F30223C3F117
:102930000704052C28BF04241D1D072D34BF0023C8
:10294000DB1E012505FA04F4641E2140994005FAB6
:1029500003F35B1E1A401143BDE83440C8E7012170
:1029600000F01F029140194A04E0012100F01F020B
:102970009140174A400942F82010704710B5401E98
:10298000B0F1807F01D3012010BD124C60600F2197
:102990004FF0FF30FFF7ACFF0020A0600720206061
:1029A000002010BD0B49042808680CBF40F004004B
:1029B00020F004000860704700F00EB818ED00E049
:1029C00000E400E00CED00E00000FA0500E100E0AA
:1029D00080E100E010E000E07047000038B504003E
:1029E00009D004F17005687808B900F00FF800F01C
:1029F00020F8012801D1012032BD606A08B100F041
:102A000029F800F00EF821F02A0103E02870204692
:102A100000F0FDBA816000F016F8BDE8324000F029
:102A200062BA2068416821F4904141602068816861
:102A300070472420687020680168490849000160D7
:102A4000204600F0BBB82068016841F00101016038
:102A500020467047204600F0E3B9204600F06EBAE9
:102A6000206881684906704738B504462368D869EC
:102A700019689A6810F00F050AD185066DD58D0684
:102A80006BD5216E080067D02046BDE8344008476A
:102A9000D50702D411F4907F5FD0C50707D5CD05C7
:102AA00005D501251D62636F43F00103636783074A
:102AB00008D5D30706D5256802232B62636F43F040
:102AC00004036367430708D5D30706D525680423A5
:102AD0002B62636F43F00203636703070AD58B061B
:102AE00001D4D20706D5236808221A62626F42F029
:102AF00008026267626F002A58D0800606D58806F1
:102B000004D5216E08001CBF20468847606F00076F
:102B100003D420688068400619D5204600F040FAAA
:102B2000FFF79EFF0ED500F042F858B10FF2954125
:102B30008163E06E00F0CAFAC0B3E06E816BBDE85D
:102B4000344008472046BDE8324000F0E5BA204650
:102B500000F0E2FA0020606731BDC50209D55202DB
:102B600007D54FF4801018622046BDE8324000F0CF
:102B7000D4BA020608D50A0606D5616E080015D03B
:102B80002046BDE83440084740060FD548060DD51D
:102B9000186820F040001860202084F871000020A0
:102BA00060662046BDE8324000F0B8BA31BD8168A9
:102BB00021F040018160E06E704700002DE9F04196
:102BC00004468B4A2168DFF82CC208681040A268CE
:102BD00010432269104362691043E26910430860A0
:102BE00010274868E26820F44050104348600026EF
:102BF0000025A069804A91421CBF236A18438B6854
:102C000023F430631843886061457C487C4B21D1B4
:102C10001B6803F00303032B4FD8DFE803F00239EE
:102C2000294D0127E169B1F5004F4FF6F07840F0EA
:102C3000B28067B1012F00F08880022F00F08880F9
:102C4000042F00F08C80082F00F0908096E0FFF7B2
:102C5000E7FC86E0DFF8ACC161450BD11B6813F0DF
:102C60000C0327D0042B13D0082B01D00C2B1FE012
:102C7000022722E0DFF890C161450BD11B6813F0F9
:102C8000300317D0102B03D0202BF1D0302B0FE0C6
:102C9000042712E0914210D11B6813F4406309D05D
:102CA000B3F5806FF4D0B3F5006FE1D0B3F5406FAA
:102CB00002D002E0002700E008279142B2D139009B
:102CC00006D0022F08D0042F0FD0082F10D088E094
:102CD000FFF7A6FC00285DD0626802EB4201884243
:102CE00002D31103814206D27BE0FFF73FFCF1E7FC
:102CF0004FF40040F0E737B1022F0AD0042F0ED076
:102D0000082F16D01BE0FFF78BFC00F083F8794109
:102D10000AE000213D4E16EB5200494104E0FFF766
:102D200025FC00F077F869410023FEF749FC0646D0
:102D300006E0500800F50000B0FBF2F600E00125C7
:102D4000A6F540703249884247E0FFF771FC08E081
:102D50006168480800F1F47000F590400AE0FFF760
:102D600005FC61684A0802EB400003E0616848081E
:102D700000F58030B0FBF1F6B6B200E00125A6F117
:102D8000100040452DD208EA0600C6F34201084370
:102D90002168C86026E047B1012F09D0022F0CD06E
:102DA000042F08D0082F0CD013E0FFF739FC04E003
:102DB000FFF73EFC01E0FFF7D9FB616800EB510033
:102DC00003E06168480800F50040B0FBF1F6B6B2D8
:102DD00000E00125A6F11000404502D22068C6603F
:102DE00000E001250020206660662846BDE8F081ED
:102DF000F369FFEF00380140008000400024F40038
:102E0000881002400044004000480040000024F4C4
:102E100000FD0F006268010E560816EB0020704797
:102E200090F82410C90706D501684A68836A22F41D
:102E300000321A434A6090F82410890706D50168C9
:102E40004A68C36A22F480321A434A6090F8241018
:102E5000490706D501684A68036B22F480221A43A9
:102E60004A6090F82410090706D501684A68436B48
:102E700022F400421A434A6090F82410C90606D58D
:102E800001688A68836B22F480521A438A6090F842
:102E90002410890606D501688A68C36B22F40052A3
:102EA0001A438A6090F82410490610D501684A68D0
:102EB000036C22F480121A434A60026CB2F5801F40
:102EC00005D14A68436C22F4C0021A434A6090F864
:102ED0002410090606D501684A68806C22F4002295
:102EE000104348607047F8B5044604F170050020AF
:102EF00068606FF07E47FFF7FDFB064620680068BC
:102F0000000707D50097334600224FF40011FFF762
:102F1000A4FD58B920680068400709D500973346DA
:102F200000224FF48001FFF798FD08B10320F2BDA5
:102F300020206870A87000202870F2BD2DE9F041B3
:102F4000069E04460D4690461F462068C0692840EC
:102F5000A8420CBF01200020404518D116F1010FF6
:102F6000F3D026B1FFF7C6FBC01B8642EDD2206826
:102F7000016821F4D071016000F00CF804F17000D8
:102F800020214170817000210170032000E00020A9
:102F9000BDE8F08120688168490849008160704778
:102FA00001680A6822F490720A6001688A6852080F
:102FB00052008A60202180F872100021016670475B
:102FC00000000000806A00F1520100220A810A809C
:102FD00000F0A2B880B52E482E4901604FF4E131CF
:102FE000416000218160C16001610C2141610021CB
:102FF0008161C16101624162FFF7F0FC30B1BDE85F
:10300000044044210FF2940000F018B901BD00689B
:103010002049884200D0704700B51F4887B001683A
:1030200041F48041016001A9006800F480400090F3
:1030300000984FF4C060019002200290002003909D
:1030400003200490072005904FF0904000F002F913
:10305000002201212520FFF765FC2520FFF77FFCDA
:1030600007B000BD80B500680A4988420FD10A4800
:10307000016821F4804101604FF090404FF4C0613D
:1030800000F09EF9BDE802402520FFF76EBC01BDAF
:10309000400700200038014060100240443A5C5F65
:1030A000433854365C4C3433335C436F64655C4C5A
:1030B000505F53746F704D6F64652D5254435C5371
:1030C00072635C75736172742E63000010B500F159
:1030D000240100244A78022A03D0042088610124B4
:1030E00018E00268136823F00E0313600268136887
:1030F0005B085B001360012291F8203003F01C0391
:103100009A40CB695A6001224A700C7049690A00E2
:1031100018BF8847204610BD7047704770470000B1
:1031200070B500F0E1F900F02DF800F0FDF900F0C5
:1031300077FAFFF74FFF00F0F3FA3C4C0FF2081557
:103140000FF2FC06002060700221394800F0B0F94F
:10315000C82000F0BFFB304600F0CCFB2078401CBC
:103160002070C0B20B2803DB0020207000F03BFB76
:1031700060780028E8D000F051FB6178284600F024
:10318000B9FBDFE700B5AFB000F0C6FB2948016826
:1031900021F01801016014201D9001201F90239040
:1031A0000020249060202590002027901DA8FEF785
:1031B00059FF00B1FEE70F20009000210020019090
:1031C0000290039004906846FFF74FF900B1FEE7C4
:1031D0001948059000200D904FF480701C9005A8B0
:1031E00000F0C0FB00B1FEE74FF48060FFF7A2FAE9
:1031F00000B1FEE7FFF711FA4FF47A71B0FBF1F07E
:10320000FFF7BCFB0420FFF7CDFB002200214FF0AD
:10321000FF30FFF787FB2FB000BD04490120487045
:103220007047024902204870704700003C080020A7
:10323000000400489010024001000200FEE7000078
:1032400052756E210D0A000077616B6575703D2522
:10325000640D0A002DE9F84F00F020F9DFF86892BC
:103260004FF00F0A2EE0B5402C4348F82C406FEA8F
:103270000B051C6805EA040E4C68E40348BF4BEAE2
:103280000E0EC3F800E05C6805EA040E4C68A40367
:1032900048BF4BEA0E0EC3F804E09C6805EA040E32
:1032A0004C68E40248BF4BEA0E0EC3F808E0DC6845
:1032B00005EA040C4C68A40248BF4BEA0C0CC3F8A6
:1032C0000CC0521C0C6834FA02F577D0012505FABF
:1032D00002FC1CEA040BF4D04C68022C18BF122C20
:1032E0004FEA820E0DD1D40800EB84040EF01C05C9
:1032F000266A0AFA05F7BE430F6907FA05F5354352
:1033000025625400032506680F79A540ED4307F0B8
:1033100003072E40A7403E4306604E68012E18BFAB
:10332000022E03D0112E18BF122E0ED18668CF6840
:103330002E40A7403E438660466826EA0C074E684A
:10334000C6F3001696403E434660C6682E408D6820
:1033500005FA04F43443C4604C68E400B1D5D9F8EC
:10336000004044F00104C9F800404FEA920CD9F83B
:10337000005005F0010400940EF00C06009C58F873
:103380002C400AFA06F5AC43B0F1904F08BF002577
:1033900013D04E4DA84208BF01250ED04C4DA84277
:1033A00008BF022509D04B4DA84208BF032504D011
:1033B000494DA8420CBF0425072554E7BDE8F18F0D
:1033C0002DE9F04700F06AF84FF00F0917E005FA11
:1033D0000EF5AC4212D158F8274024EA0C0448F804
:1033E0002740F6431F6837401F605F6837405F60C3
:1033F0009F6837409F60DF683E40DE60521C31FAB4
:1034000002F649D0012606FA02F717EA0106F5D0BE
:103410000324550004FA05FC04684CEA0404046023
:10342000D50800EB85044FEA820E256A0EF01C0ACF
:1034300009FA0AFA25EA0A0525626FEA0C0584688A
:103440002C4084600EF00C0E446824EA07074760A5
:1034500009FA0EFCC7682F40C760970858F8274044
:10346000B0F1904F0CEA040408BF0025AFD0174D0F
:10347000A84208BF0125AAD0154DA84208BF0225C1
:10348000A5D0144DA84208BF0325A0D0124DA842D4
:103490000CBF042507259AE7BDE8F08700220F4BF3
:1034A000DFF83C8070470AB18161704781627047E4
:1034B00042695140416170470A4A136803421CBF88
:1034C0001060FFF7AABE7047601002400004004879
:1034D00000080048000C00480010004800040140AB
:1034E000080001401404014080B50320FFF70DFAE5
:1034F0000020FFF705F900F00DFC002002BD09488F
:103500000BE00848016821F002010160704705489E
:10351000016821F004010160704701684908490011
:1035200001607047042004E010B53448344C86B084
:10353000016841F0040101600022016801F004010A
:1035400000910099016841F080010160016801F07B
:10355000800100910099016841F00101016001685A
:1035600001F0010100910099016841F00201016040
:103570000221006800F00200009000982046FFF74A
:1035800092FF4FF4005000F043F81E48FFF762FE30
:103590000B2000F03DF81C48FFF75CFE0120019075
:1035A00001A91A480290022003904FF09040FFF7C3
:1035B00051FE49F6FE1000F02BF84FF09040FFF757
:1035C00049FE4FF6FD7000F023F82046FFF742FE5B
:1035D0000220019001A90120029003900020049094
:1035E0002046FFF737FE002202210620FFF79AF956
:1035F0000620FFF7B4F906B010BD00004C100240E1
:103600000004004800080048001C00480000311079
:10361000019001A903200290002003907047000050
:10362000304830B5304C0FF2C805206087B000201C
:1036300060607F20A060FF20E0600020206160616A
:10364000A061E061204600F0ABFB10B1432100F027
:1036500031F80020ADF804008DF8060004900590C4
:10366000012201A9204600F0F2FB10B14F2100F029
:1036700021F801208DF80000012203208DF80100BF
:10368000694619208DF8020018208DF803002046A5
:1036900000F033FC10B1592100F00CF800224FF477
:1036A0000051204600F002FD10B1602100F002F848
:1036B00007B030BD2846FFF7C1BD80B50068094995
:1036C00088420ED10948016841F40041016000229E
:1036D00000210320FFF726F9BDE802400320FFF791
:1036E0003EB901BD002800400808002090100240AB
:1036F000443A5C5F433854365C4C3433335C436F3C
:1037000064655C4C505F53746F704D6F64652D52EF
:1037100054435C5372635C7274632E630000000058
:1037200010B582B05D485E4C00F035FD00F0F4F855
:10373000206D40F080502065206D00F0805000909A
:10374000009800F0EFF8206820F400402060554811
:10375000016821F4C06141F48061016044F20161BB
:10376000006800F4C06000900098606C20F00400D5
:103770006064606C20F080006064002020666066F9
:10378000A06620676067A067206F40F480602067B4
:103790000020FFF741F84FF400510020FEF7FAFF38
:1037A00002210120FEF7F6FFBDE81340FFF776B8CF
:1037B00080B500F028F8FFF7A4FEFFF7A0FEFFF7A2
:1037C000A6FE00F060F84FF48071374801601F21B9
:1037D000016000F055F8BDE8084000224FF40051A8
:1037E0002E4800F063BC80B50FF2D00000F082F8E4
:1037F00000F00EF800F00FF8FFF7DAFFBDE8024026
:103800000120FFF756B8012202212948FFF74BBEDD
:10381000322000F05FB82548FFF724BC80B51F4870
:1038200000F0B9FC23484168002944BF1F21816092
:103830000168C90544BF4FF480718160012000F028
:1038400083F81D48016841F0010101600022016810
:1038500001F0010100910099016841F0020101604D
:103860000221006800F00200009000981048FFF765
:103870001AFEBDE802400D48FFF7C9BB1F202060BB
:10388000012000F055B80C48016849084900016062
:10389000016821F002010160704700000808002063
:1038A00008100240007000401870004040070020DF
:1038B00000040048107000404C1002403D3D3D2087
:1038C000506F7765722053746F70203D3D3D0D0A37
:1038D0000000000038B50446FEF70CFF14F1010F9C
:1038E000054618BF641CFEF705FF401BA042FAD333
:1038F00031BD00000EB400B582B003A900910246AC
:103900006B460121034878440A30FCF73FFC06BCB3
:103910005DF810FB490B00000F48016841F480710D
:10392000016070470D48016849084900016070470F
:103930000B4A536800F01F018B4343EA501050605C
:10394000106808431060704705490A6800F01F00BE
:1039500022EA0000086070470070004004700040D8
:10396000087000402DE9F047044682B02068DFF877
:10397000745300260005B0461BD5606C58B1B0F5F5
:10398000000F03D0B0F5400F09D010E0286840F4D4
:103990008030286004E0002100F022F906463EB99C
:1039A000E86F616C20F440000843E86701E00126FD
:1039B000B0462068800329D5E86C0027C00009D4F0
:1039C000E86C40F08050E8640127E86C00F080501B
:1039D00000900098DFF81093D9F8000040F4807050
:1039E000C9F80000FEF786FE8246D9F80000C0053F
:1039F0006BD4FEF77FFEA0EB0A000328F5D3032665
:103A0000B0461FB1E86C20F08050E8642078C00711
:103A100005D5E86F216A800841EA8000E8672078D0
:103A2000800705D5E86F616A20F00C000843E8675D
:103A30002078400705D5E86FA16A20F030000843E0
:103A4000E8672078800605D5E86FE16A20F44060D9
:103A50000843E8672068800505D5E86FE16B20F42E
:103A600040200843E8672068400505D5E86F216CD1
:103A700020F440100843E8672078400605D5E86F39
:103A8000216B20F440500843E8672078000605D5F4
:103A9000E86F616B20F440400843E8672068C00588
:103AA00005D5E86FA16B20F440300843E867206833
:103AB000800442D5E86FA16C00F087F8A06CB0F1EB
:103AC000006F33D100F086F837E0002E98D1DFF890
:103AD0001C62306810F440701CBFE16D88420BD04E
:103AE0003068316841F48031316020F440703168D1
:103AF00021F4803131603060C00710D5FEF7FAFD47
:103B00008246306880070AD4FEF7F4FDA0EB0A0075
:103B100041F289318842F4D34FF0030871E73068ED
:103B2000E16D20F44070084330606AE7B0F1806FC7
:103B300003D100F054F800B180462068000311D58D
:103B4000E86FE16C00F041F8E06CB0F1006F02D179
:103B500000F040F806E0B0F1806F03D100F03FF8CC
:103B600000B180462068400311D5E86F216D00F058
:103B70002CF8206DB0F1006F02D100F02BF806E0B8
:103B8000B0F1806F03D100F02AF800B180462068C0
:103B900040040ED5E86F616D20F040500843E8679F
:103BA000606DB0F1805F04D1022100F019F800B11E
:103BB00080462068000405D5E86FA16D20F08040A4
:103BC0000843E8674046BDE8F68720F040600843B8
:103BD000E8677047286840F480102860704701212A
:103BE000201DFFE72DE9F0410446414F20680D46B6
:103BF000F968002611F0030F0DD0F96801F00301F8
:103C0000814236D1A8B3F8686168C0F30210401C45
:103C1000884213D02DE0012804D02AD3032822D0D3
:103C20001DD326E03968890723D5F96821F073018F
:103C300008436168491E40EA0110F860386820F0C6
:103C400080603860FEF756FD80463868000112D566
:103C5000FEF750FDA0EB08000328F6D338E03968E2
:103C60004905E2D405E039688903DED4396849039F
:103C7000DBD4012632E0A06845B939691D4A1140FC
:103C800041EA0020E16840EAC16011E0012D396994
:103C90000AD1194A114041EA00202169891E09050B
:103CA000490D40EA415003E0144A114000F028F861
:103CB0003861386840F080603860FEF71BFD0546CB
:103CC0003868000106D4FEF715FD401B0328F7D322
:103CD000032603E03869A169084338613046BDE82E
:103CE000F08100000C100240007000409010024073
:103CF00000100240FF80FF07FF809FFFFF80FFF959
:103D000041EA00206169891E090601F07E410843ED
:103D10007047000080B52148816841F00101816051
:103D2000816801F0010100910099016841F0805122
:103D30000160006800F08050009000980320FEF7BA
:103D4000E4FD002200216FF00B00FEF7EBFD0022E6
:103D500000216FF00A00FEF7E5FD002200216FF060
:103D60000900FEF7DFFD002200216FF00400FEF7DE
:103D7000D9FD002200216FF00300FEF7D3FD0022E1
:103D800000216FF00100FEF7CDFDBDE808400022E4
:103D900000214FF0FF30FEF7C5BD00BF58100240B4
:103DA00038B504002AD094F8210020B984F8200006
:103DB0002046FFF782FC00F03FF8FF25E0B92068BD
:103DC000DFF834228168114000F088F862682369C6
:103DD0001A43A3691A43114381602168E0680861AE
:103DE00020680169A26841EA0241016100F07AF8A5
:103DF00006D400F080F818B100F018F8012032BDA8
:103E00002068C16C89088900C1642068C16CE269BE
:103E100063691A431143C16400F001F832BD2068A0
:103E20004562012084F82100002070472068456227
:103E3000042084F821007047022084F82100CA2061
:103E4000216848625320216848622046F2E0F8B5B4
:103E500000F0B4F801D10220F2BD00F0BFF80CD19F
:103E600040065CBF0020E870287800F0FDF800F004
:103E7000A2F800F09BF830430BE0400603D5287809
:103E800000F0FDF801E00020E8706978287800F083
:103E900077F8E97840EA014600F080F8FF27A8B9F2
:103EA0002168DFF85801304008602068816821F4FB
:103EB000802100F013F8EA682B691A4311438160EE
:103EC00000F010F807D400F016F820B1206847621F
:103ED00000F05CF8F2BD2068476289E081602068EC
:103EE000816870472068C16821F08001C160206846
:103EF000806880067047204684E070B500F05EF868
:103F000001D1022070BD012084F82000022084F835
:103F10002100002A687824D1C10603D500F0EF0003
:103F20000A306870E87800F09FF800F044F800F07C
:103F30003DF83043297840EA413600F02FF8FF255C
:103F400050B92168DFF8B80030404860FFF7CAFF79
:103F500011D4FFF7D0FF70B12068456200F016F869
:103F600070BD00F08CF8A87800F089F86978E878DE
:103F700000F006F8DEE7FFF752FF84F8200070BD7E
:103F8000090241EA0040A97808437047042084F8F8
:103F90002100002084F82000012070472168CA20F9
:103FA0004862532021684862204643E0000240EA0C
:103FB0000646A87858E00646687855E004460D465F
:103FC00094F8200001287047816020684762012032
:103FD00084F82100002084F820007047012084F834
:103FE0002000022084F82100002A206880687047A1
:103FF000FFF7EDFFF2BD0000BFFF8FFF7F7F7F0067
:104000003FFFFF0038B504462068C16821F0A001D9
:10401000C160FEF76FFB05462068C068800607D4C4
:10402000FEF768FB401BB0F57A7FF5D9032032BD5F
:10403000002032BD38B504462068C168490611D455
:104040004FF0FF31C160FEF755FB05462068C068A0
:10405000400607D4FEF74EFB401BB0F57A7FF5D93A
:10406000032032BD002032BD002101E0491C0A3886
:10407000C0B20A28FADA40EA0110C0B2704701095A
:104080000A2200F00F0012FB0100C0B270470000CE
:104090002068816841F48061816020684762012066
:1040A00084F82100002084F8200070472DE9F843AF
:1040B00000F04DF808BF022037D000F059F80CD5B9
:1040C000FEF718FB06462068C068400705D5FEF7D6
:1040D00011FB801B4045F6D310E000F032F8206859
:1040E00000F098F8FEF706FB06462068C16849070D
:1040F00007D4FEF7FFFA801B4045F6D300F02EF8F8
:1041000013E04561206800F012F84048016841F46E
:1041100080110160816841F48011816020688168AC
:1041200041F480418160FFF7B3FFBDE8F28381680D
:10413000C908C90081602068816849EA010181607D
:1041400070472068816821F480618160704704466F
:104150000D4694F820000128914670472068476278
:10416000032084F82100002084F8200003207047F9
:10417000012084F82000FF27022084F82100CA20B3
:104180002168486253202168486240F2E93820687B
:1041900080684005704738B500F059F801D1022019
:1041A00032BD012084F8200000F03BF8816821F442
:1041B000806181602068816821F480418160FEF720
:1041C00099FA05462068C168490708D4FEF792FAB3
:1041D000401BB0F57A7FF5D900F02EF832BDFF21F3
:1041E000416239E010B5044609494FF48010086077
:1041F0002068C168490504D500F00CF82046FFF797
:1042000010F8012084F8210010BD000000040140D6
:1042100014040140C16801F0800161F49061C16043
:104220007047022084F82100CA2021684862532088
:1042300021684862206870472168FF204862032097
:1042400084F82100002084F82000032070470446F1
:1042500094F8200001287047012084F821000020F4
:1042600084F8200032BD00000E480F4A016841F476
:10427000700101600D48016841F0010101600021F9
:1042800081600168114001604FF48051C160016894
:1042900021F480210160002181614FF00060044918
:1042A0000860704788ED00E0FFFFF6EA001002406A
:1042B00008ED00E00000000000000000010203041F
:1042C00006070809A0860100400D0300801A0600B9
:1042D00000350C0040420F0080841E0000093D00A4
:1042E00000127A000024F40000366E010048E80154
:1042F000006CDC0219E050F8041BCB0744BFA9F1A5
:1043000001035918121F0023042A41F8043BF9D273
:104310005FEA827C0B4604D54FF0000CA1F800C088
:104320009B1CD10744BF0021197050F8042B002AB0
:10433000E1D1704730B5016842688468014401EBFF
:104340005203D20748BF4C44994201D10C3030BDD2
:1043500011F9012B11F8015B002A04F8015B02D569
:10436000521CF9D1F0E7521EF4D5EDE7FEE7FEE767
:10437000FEE7704780B500F011F8BDE80140FEF798
:104380001BBB0448FFF72EBF0120FFF795B802487A
:10439000FEF76ABB080800204007002002480168B9
:1043A000491C0160704700BF3408002010B5074960
:1043B00079441831064C7C44163404E00A68081D20
:1043C000114488470146A142F8D110BD2C000000DD
:1043D000480000004EF68851CEF20001086840F413
:1043E00070000860BFF34F8FBFF36F8F4FF0007006
:1043F000E1EE100A70470000FDFEFFFF0001000023
:1044000040070020000000002DFFFFFFB801000062
:10441000620000000000002000F00BF8002801D02E
:10442000FFF7C4FF0020AFF30080FEF779FE00F035
:1044300002F80120704700F001B800000746384636
:1044400000F002F8FBE7000080B5AFF30080024AFD
:1044500011001820ABBEFBE72600020038B5044669
:104460000D46284600F006F8A84218BF0024204652
:1044700032BD0000014900F003B800BF0400002075
:1044800003490968CA695206FCD5C2B20A85704759
:104490004007002001488047014800476942000862
:1044A000A5440008AFF30080FFF794FFFFF7B4FFC7
:1044B0000000000001020304FFF7FEBFFFF7FEBF8C
:1044C000FFF7FEBFFFF7FEBFFFF7FEBFFFF7FEBF20
:1044D000FFF7FEBFFFF7FEBFFFF7FEBFFFF7FEBF10
:1044E000FFF7FEBFFFF7FEBFFFF7FEBFFFF7FEBF00
:1044F000FFF7FEBFFFF7FEBFFFF7FEBFFFF7FEBFF0
:10450000FFF7FEBFFFF7FEBFFFF7FEBFFFF7FEBFDF
:10451000FFF7FEBFFFF7FEBFFFF7FEBFFFF7FEBFCF
:10452000FFF7FEBFFFF7FEBFFFF7FEBFFFF7FEBFBF
:10453000FFF7FEBFFFF7FEBFFFF7FEBFFFF7FEBFAF
:10454000FFF7FEBFFFF7FEBFFFF7FEBFFFF7FEBF9F
:10455000FFF7FEBFFFF7FEBFFFF7FEBFFFF7FEBF8F
:10456000FFF7FEBFFFF7FEBFFFF7FEBFFFF7FEBF7F
:10457000FFF7FEBFFFF7FEBFFFF7FEBFFFF7FEBF6F
:10458000FFF7FEBFFFF7FEBFFFF7FEBFFFF7FEBF5F
:10459000FFF7FEBFFFF7FEBFFFF7FEBFFFF7FEBF4F
:1045A000FFF7FEBFFFF7FEBFFFF7FEBFFFF7FEBF3F
:1045B000FFF7FEBFFFF7FEBFFFF7FEBFFFF7FEBF2F
:1045C000FFF7FEBF2300093D0002040101B8070008
:1045D0002008080020B8070020B8070020B807000E
:1045E000204100002028000020C400F8FFDC00FA71
:0545F000FF8100D10075
:04000005080044A506
:00000001FF
