:020000040800F2
:10000000B0040020A1010008A9010008AB0100080C
:10001000CD1B000891020008112300080000000019
:10002000000000000000000000000000B301000814
:100030009302000800000000B7010008091E000834
:10004000BB010008BB010008BB010008FD1D000842
:10005000BB010008BB01000895020008BB010008B5
:10006000BB010008BB010008BB010008BB01000880
:10007000BB010008BB010008BB010008BB01000870
:10008000BB010008BB010008BB010008BB01000860
:10009000BB010008BB010008BB010008BB01000850
:1000A000BB010008BB010008BB010008BB01000840
:1000B000BB0100080000000000000000BB010008B8
:1000C000BB010008BB010008BB010008BB01000820
:1000D000BB01000805230008BB010008BB010008A4
:1000E000BB010008BB010008000000000000000088
:1000F0000000000000000000000000000000000000
:1001000000000000BB01000800000000BB01000867
:100110000000000000000000BB010008BB01000857
:10012000BB010008BB010008BB010008BB010008BF
:10013000BB010008000000000000000000000000FB
:10014000BB010008BB010008BB0100080000000063
:10015000BB010008BB010008BB010008BB0100088F
:10016000BB010008BB010008BB0100080000000043
:10017000BB010008BB0100080000000000000000F7
:10018000BB010008BB010008BB010008DFF80CD070
:1001900000F06CF800480047D5270008B0040020A4
:1001A0000648804706480047FEE7FEE7FEE7FEE711
:1001B000FEE7FEE7FEE7FEE7FEE7FEE7B11E00080A
:1001C0008D0100082DE9F05F0546002092469B4610
:1001D00088460646814640241BE02846414647465D
:1001E000224600F032F853465A46C01A914110D3C5
:1001F00011461846224600F019F82D1A67EB01083F
:100200004F4622460120002100F010F817EB0009AC
:100210004E41201EA4F10104DFDC484631462A4647
:10022000434600F000B830BCBDE8C09F202A04DB84
:10023000203A00FA02F1002070479140C2F12003F9
:1002400020FA03F3194390407047202A04DB203A38
:1002500021FA02F00021704721FA02F3D040C2F1E6
:10026000200291400843194670470000064C074D94
:1002700006E0E06840F0010394E807009847103476
:10028000AC42F6D3FFF786FFB0280008D02800085C
:10029000FEE77047012000F055B8000002484168B1
:1002A00021F0010141607047002004E002484168EC
:1002B00021F0040141607047002004E002484168D9
:1002C00021F0020141607047002004E010B590F871
:1002D00025100024022903D00421C16301241AE05F
:1002E00001680A6822F00E020A6001680A6822F0BA
:1002F00001020A6090F84410036C01F01C02012115
:1003000001FA02F25A6080F82510002180F82410CA
:10031000816B01B18847204610BD70B5044600F0DE
:10032000E9F80546601C00D0641C00F0E3F8401BAF
:10033000A042FAD370BD0000014901200870704747
:1003400000000020044910B50A68024202D008608B
:10035000FFF7F2FF10BD0000140401402DE9F84F33
:10036000DFF864B100234FF0010C4FF0030A4FF0A7
:100370000F090BF1040EA0E00CFA03F6324072D024
:100380004C68022C01D0122C0ED1DC0800EB840842
:10039000D8F820405D07EF0E09FA07F5AC430D6968
:1003A000BD402543C8F8205007685D0091F80480DF
:1003B0000AFA05F408F00308A74308FA05F848EA22
:1003C0000708C0F800804F68012F05D0022F03D026
:1003D000112F01D0122F11D18768D1F80C80A743BB
:1003E00008FA05F848EA0708C0F808804768B743E4
:1003F0000E79C6F300169E403E434660C668A6438B
:100400008C68AC403443C4604C68E40054D52F4C35
:10041000256E45F001052566246E23F0030504F0E2
:10042000010400942A4C2E19B4689D072F0F09FA75
:1004300007F5AC43B0F1904F04D0264DA84203D14C
:10044000012512E0002510E0234DA84201D102252C
:100450000BE0224DA84201D1032506E0204DA84221
:1004600002D1042501E027E00725BD402543B56002
:10047000DBF800405D464E689443F60300D5144314
:100480002C60DEF8004075464E689443B60300D5F4
:1004900014432C600C4D08352C684E689443F602CA
:1004A00000D514432C60084D0C352C684E689443DD
:1004B000B60200D514432C605B1C0A6832FA03F4C0
:1004C0007FF45AAF00F00EB8000401400010024063
:1004D000000001400004004800080048000C0048EB
:1004E0000010004818BCBDE8E08F0AB18161704778
:1004F00081627047014800687047000004000020D6
:1005000002480168491C0160704700000400002097
:1005100010B5032000F088F8002000F005F800F086
:1005200017F8002010BD000010B5044607484FF42E
:100530007A710068B0FBF1F001F040F8002221462A
:10054000501E00F051F8002010BD000008000020EF
:100550001E4808B5016E41F001010166016E01F00F
:1005600001010091816D41F080518165806D00F045
:1005700080500090032000F057F8002211466FF0E1
:100580000B0000F031F8002211466FF00A0000F075
:100590002BF8002211466FF0090000F025F8002228
:1005A0001146501F00F020F800221146101F00F0E5
:1005B0001BF800221146901E00F016F80022BDE83C
:1005C00008401146501E00F00FB800000010024015
:1005D00000F01F02012191404009800000F1E0205D
:1005E000C0F8001170470000F0B40E4B1B680C46B9
:1005F000C3F30223C3F10705042D00D90425191DF7
:10060000072901D2002300E0DB1E012606FA05F1CE
:10061000491E214099409E40761E16403143F0BC51
:1006200001F0D5BA0CED00E0064900F007020868B9
:100630004FF6FF03184040EA0220034A10430860C7
:10064000704700000CED00E00000FA051549B0F518
:10065000007F0868C0F3412009D0022805D008684F
:1006600020F4C06040F480600860002070470128DA
:10067000FBD0086820F4C06040F4007008600A48AD
:100680000A4A0068B0FBF2F03222504300E0401EFC
:1006900010B14A695205FAD448694005E5D50320EE
:1006A00070470000007000400800002040420F002A
:1006B0000B490A6822F00702921C0A6009490A687D
:1006C00042F004020A60012807D040BF20BF20BFCB
:1006D000086820F004000860704730BFF8E70000A9
:1006E0000070004010ED00E00248006800F4C060B7
:1006F00070470000007000400248416821F001018D
:10070000416070470070004003498A6800F01F0094
:1007100082438A6070470000007000400248016810
:1007200041F4807101607047007000400549CB685A
:1007300000F01F02934343EA5010C86088681043DA
:1007400088607047007000402DE9F84F044600278C
:100750000088A84D3E46000515D5606C60B1B0F527
:10076000000F04D0B0F5400F2BD001270AE0E86855
:1007700040F48030E86024E00021201D01F038FAC8
:1007800007001ED03E46206880033AD5A86D4FF082
:100790000008C00009D4A86D40F08050A865A86D7D
:1007A0004FF0010800F080500090DFF84CA2DAF81A
:1007B000001041F48071CAF80010FFF79BFE8146DB
:1007C00010E0D5F88800616C20F440000843C5F8BB
:1007D0008800D8E7FFF78EFEA0EB0900022801D9B8
:1007E000032705E0DAF80000C005F3D5002F7DD01F
:1007F0004FEA0706B8F1000F03D0A86D20F0805033
:10080000A8652078C00707D0D5F88800216A20F0B5
:1008100003000843C5F888002078800707D5D5F87D
:100820008800616A20F00C000843C5F88800207831
:10083000400707D5D5F88800A16A20F030000843AA
:10084000C5F888002078800607D5D5F88800E16AC9
:1008500020F440600843C5F888002088800507D54B
:10086000D5F88800E16B20F440200843C5F88800E3
:100870002088400507D5D5F88800216C20F4401069
:100880000843C5F888002078400607D5D5F88800C9
:10089000216B20F440500843C5F8880020780006FA
:1008A00007D5D5F88800616B20F440400843C5F8AF
:1008B00088002088C00507D5D5F88800A16B20F4F2
:1008C00040300843C5F8880020684FF000670003F7
:1008D0004FF0806850D5D5F88800A16C20F04060BA
:1008E0000843C5F88800A06CB84200E005E03BD1A1
:1008F000E86840F48010E8603EE0D5F8900010F41D
:10090000407014D0A16D814211D0D5F89000D5F877
:10091000901020F4407041F48031C5F89010D5F863
:10092000901021F48031C5F89010C5F89000C007F0
:1009300011D0FFF7DFFD074641F2883907E000BF1D
:10094000FFF7D8FDC11B494501D9032652E7D5F869
:1009500090008007F4D5D5F89000A16D20F4407088
:100960000843C5F8900045E7404505D10121201D09
:1009700001F03EF900B106462068400317D5D5F8CE
:100980008800E16C20F040600843C5F88800E06C06
:10099000B84204D1E86840F48010E86007E04045C0
:1009A00005D10121201D01F023F900B10646208860
:1009B000400411D5D5F88800216D20F0405008433F
:1009C000C5F88800206DB0F1805F05D10221201D9F
:1009D00001F00EF900B106462088000406D555F84E
:1009E000880F616D20F0804008432860304600F099
:1009F00005B80000001002400070004018BCBDE8BF
:100A0000E08F00002DE9F0470F46050058D03E4E1C
:100A1000306800F00700B84209D2306820F00700C3
:100A200038433060306800F00700B84248D1287879
:100A3000364CC0072CD06868032811D0022812D089
:100A4000216898B1490500293ADAA16821F003012B
:100A50000143A160FFF74EFD804641F2883910E066
:100A600021688901EFE721688903ECE78907EAE754
:100A7000FFF740FDA0EB0801494502D90320BDE87E
:100A8000F087A068696800F00C00B0EB810FEFD12F
:100A90002878800705D5A068A96820F0F0000843F1
:100AA000A060306800F00700B8420BD9306820F031
:100AB000070038433060306800F00700B84201D0CA
:100AC0000120DCE72878400705D5A068E96820F414
:100AD000E0600843A0602878000706D5A06829696F
:100AE00020F4605040EAC100A06000F03BF8A1682B
:100AF000074AC1F30311515CC84006490860002051
:100B0000FFF712FD0020BAE700200240001002406B
:100B100068280008080000200148006870470000AD
:100B2000080000200448054900688968044AC1F3A8
:100B30000221515CC84070470800002000100240AC
:100B4000A82800080448054900688968044AC1F3D8
:100B5000C221515CC84070470800002000100240CC
:100B6000A828000830B52D49002318468A682C4C67
:100B700012F00C0F4FEA640514D08A68C2F38102A8
:100B8000032A04D1CA6802F00302012A0AD08A6843
:100B9000C2F38102012A19D08A68C2F38102022AB3
:100BA00016D016E00A68120704D4D1F89420C2F3D4
:100BB000032202E00A68C2F303121A4B53F82230F0
:100BC0008A6812F00C0F04D1184602E0204600E0BB
:100BD00028468A68C2F38102032A1DD1C868CA6800
:100BE00000F00300C2F30212521C022804D00328B2
:100BF00005D0B3FBF2F004E0B4FBF2F001E0B5FB8A
:100C0000F2F0CA68C968C2F306225043C1F34161D9
:100C1000491C4900B0FBF1F030BD0000001002405B
:100C20000024F400782800082DE9F84304007DD062
:100C30002078FE4DC0065DD5A86810F00C0F0AD0D4
:100C4000A0690028286873D040F001002860FFF7F1
:100C500051FC064655E02868800702D5A0690028A7
:100C6000E5D0216A2868000703D5286800F0F00065
:100C700004E0D5F89400F02202EA1010814216D95F
:100C8000084601F04BF8002850D1286840F00800D1
:100C900028602868216A20F0F0000843286068680E
:100CA000E16920F47F4040EA0120686015E028688F
:100CB00040F0080028602868216A20F0F00008430E
:100CC00028606868E16920F47F4040EA012068609C
:100CD000206A01F023F80028D6D1FFF743FFA96866
:100CE000D34AC1F30311515CC840D24908600020C7
:100CF000FFF71AFC2CE000BFFFF7FCFB801B02286B
:100D00007ED828688007F7D5286840F0080028605A
:100D10002868216A20F0F000084328606868E169CB
:100D200020F47F4040EA0120686011E0B2E0FFE774
:100D300020F001002860FFF7DDFB064605E000BF5C
:100D4000FFF7D8FB801B0228DAD828688007F7D481
:100D50002078C00748D0A868C0F3810002281DD0C1
:100D6000A868C0F38100032803D1E868C043800766
:100D700014D06068B0F5803F17D0B0F5A02F286878
:100D800017D020F480302860286820F48020286064
:100D90006068E0B1FFF7AEFB064614E02868800308
:100DA00022D56068002875D01EE0286840F48030A5
:100DB000EDE740F480202860F7E700BFFFF79AFBDB
:100DC000801B64289CD828688003F7D50CE0FFF7C7
:100DD00091FB064605E000BFFFF78CFB801B6428F3
:100DE0008ED828688003F7D42078800742D5A86879
:100DF000C0F38100012816D0A868C0F3810000E08C
:100E0000CEE0032804D1E86800F0030002280AD0ED
:100E1000E068002828681DD040F480702860FFF743
:100E200069FB06460BE0286840050BD5E068002802
:100E3000B9D007E0FFF75EFB801B022884D8286842
:100E40004005F7D56868217C20F0FE4040EA01604B
:100E500068600FE020F480702860FFF74BFB0646C7
:100E600005E000BFFFF746FB801B0228AAD82868D0
:100E70004005F7D42078000729D560690028D5F807
:100E8000940013D040F00100C5F89400FFF732FB46
:100E9000064606E01DE100BFFFF72CFB801B022881
:100EA0007ED8D5F894008007F6D510E020F0010038
:100EB000C5F89400FFF71EFB064604E0FFF71AFB97
:100EC000801B02286CD8D5F894008007F6D42078CF
:100ED000400761D5A86D0026C00008D4A86D40F079
:100EE0008050A865A86D012600F0805000905248FF
:100EF0000168C90511D40168804641F48071016020
:100F0000FFF7F8FA074604E0FFF7F4FAC01B0228DF
:100F100046D8D8F80000C005F6D5A068012815D03D
:100F20000528D5F8900016D020F00100C5F89000F3
:100F3000D5F8900020F00400C5F89000A06841F2B8
:100F40008838B8B1FFF7D6FA07460EE0D5F890001A
:100F500040F00100F0E740F00400C5F89000F5E72C
:100F6000FFF7C8FAC11B41451AD8D5F89000800791
:100F7000F6D50CE0FFF7BEFA074604E0FFF7BAFA31
:100F8000C11B41450CD8D5F890008007F6D41EB19E
:100F9000A86D20F08050A8652078800629D500E053
:100FA00089E0606A0028D5F8980011D040F001006F
:100FB000C5F89800FFF79EFA064604E0FFF79AFA94
:100FC000801B02287DD8D5F898008007F6D510E060
:100FD00020F00100C5F89800FFF78CFA064604E0FF
:100FE000FFF788FA801B02286BD8D5F89800800795
:100FF000F6D4A06AC8B1A968C1F38101032968D0F9
:101000000228286820F08070286019D02868000124
:1010100003D4E86820F00300E860E8680749084066
:10102000E860FFF767FA04464EE050E00010024027
:10103000682800080800002000700040FFFFEEFE56
:10104000FFF758FA064604E0FFF754FA801B02281F
:1010500037D828688001F7D4206B54F82C1F000182
:1010600010380843218A1C4A490802EB4151A26802
:1010700041EA02210843217D4FF07E42490802EBFC
:1010800041610843217B40EAC160E860286840F084
:1010900080702860E86840F08070E860FFF72AFA06
:1010A000044604E0FFF726FA001B022809D8286846
:1010B0008001F7D50BE004E0FFF71CFA001B0228C3
:1010C00002D90320BDE8F88328688001F4D4002009
:1010D000F8E70120F6E700000000E0FF2DE9F04707
:1010E000044690F8200001281ED0012684F82060D4
:1010F000022084F821002168CA2048622168532018
:1011000048622068816821F480618160206881687C
:1011100021F480418160FFF7EDF9054600274FF08B
:10112000FF084FF47A7911E00220BDE8F08700BF94
:10113000FFF7E0F9401B484508D92168C1F8248031
:10114000032084F8210084F82070EEE72068C0684E
:101150004007EDD52168C1F8248084F8216084F827
:1011600020700020E1E700002DE9F74F044690F8D9
:1011700020008B4601281CD04FF0010884F8208005
:10118000022084F821002168CA2048622168532087
:101190004862206880684FF0000540054FF0FF0668
:1011A0004FF0030A4FF47A790FD5FFF7A3F90746FA
:1011B00007E0022000F058B8FFF79CF9C01B484533
:1011C00019D82068C0684007F6D42068816821F4E7
:1011D000806181602068C16801F0800161F49061E4
:1011E000C160FFF787F907460DE000BFFFF782F9FE
:1011F000C01B484507D92068466284F821A084F8BE
:1012000020500320D6E72068C0684007EED521684B
:10121000C1F814B02068816821F00701816020685E
:101220008168029A114381600E48016841F480117F
:1012300001600C480830016841F4801101602068A9
:10124000816841F4804181602068816841F4806157
:1012500081602068466284F8218084F82050002054
:10126000A8E70000000401401EBCBDE8E08F0000BC
:1012700001490220087070470000002010B50B499A
:1012800004464FF4801008602068C168490508D5FD
:10129000C16801F0800161F49061C1602046FFF7F0
:1012A000E7FF012084F8210010BD00001404014074
:1012B00070B5040003D094F8210010B107E00120BC
:1012C00070BD002084F82000204600F04DF8022078
:1012D00084F821002168CA204862216853204862AE
:1012E000204600F06DFDFF25042618BB20688168AC
:1012F0001C4A11408160216888686268A3691043B4
:1013000022691A43104388602168E06808612068F8
:101310000169228941EA024101612068C16821F026
:101320008001C16020688068800608D4204600F0F3
:101330001DF920B12068456284F82160BFE720686C
:10134000C16C21F00301C1646169E069084321684F
:10135000CA6C1043C86420684562012084F82100EB
:10136000002070BDBFFF8FFF10B50068094988429B
:101370000FD1094850F8901F41F40041016000224C
:1013800011460320FFF730F9BDE810400320FFF7B6
:101390001FB910BD00280040001002402DE9F047A1
:1013A000044690F820000B46012826D04FF0010992
:1013B00084F82090022084F82100587802B300F0CD
:1013C000EBFC987800F0E8FC9878D97840EA014581
:1013D00058781978000240EA413005432168CA2054
:1013E0004862216853204862204600F0E9FC00264C
:1013F000FF274FF0040858BB19E00220BDE8F08732
:10140000C10603D500F0EF000A305870D87800F01C
:10141000CCFC0204587800F0C8FC42EA002298781C
:1014200000F0C3FC0243187842EA4035D6E7104882
:101430000540206845602068C16821F08001C160D6
:101440002068806880060BD4204600F08FF838B101
:101450002068476284F8218084F820600120CDE76D
:101460002068476284F8219084F820600020C5E756
:101470003FFFFF002DE9F047044690F820000D469D
:10148000012812D04FF0010A84F820A0022084F82D
:1014900021002068002680684FEA406042B10028A1
:1014A0001ADA287800F078FC17E00220BDE8F0870F
:1014B000002800DBEE70287800F077FC02046878E2
:1014C00000F073FC42EA0022A87800F06EFC0243B0
:1014D000E87842EA00470AE0EE70A878297840EA06
:1014E00001476878E978000240EA01400743216833
:1014F000CA204862216853204862204600F060FC00
:101500004FF0FF084FF00409E0B917480740206882
:1015100007602068816821F480218160D5E903019A
:10152000084321688A68104388602068C16821F0F8
:101530008001C1602068806880060CD4204600F0DD
:1015400015F840B12168C1F8248084F8219084F80E
:1015500020600120AAE72168C1F8248084F821A036
:1015600084F820600020A1E77F7F7F0070B50446EB
:101570000068C16821F0A001C160FEF7BBFF05460D
:101580004FF47A7607E000BFFEF7B4FF401BB0428D
:1015900001D9032070BD2068C0688006F4D5002002
:1015A00070BD4FF0E0210428086903D020F004004A
:1015B0000861704740F00400FAE7704710B5401E1C
:1015C000B0F1807F01D3012010BD4FF0E0246061B5
:1015D0000F21601700F0FBFA0020A06107202061B6
:1015E000002010BD10B5FFF7E8FF10BD7047704731
:1015F0002DE9F04102680446D0691168936810F043
:101600000F0F4FF000055BD003F0010601F4907757
:10161000374369D0C70707D0CF0505D50127176223
:10162000626F42F001026267820708D5DA0706D0CE
:10163000276802223A62626F42F004026267420740
:1016400008D5DA0706D0236804221A62626F42F0D6
:101650000202626702070AD501F02002324306D077
:10166000236808221A62626F42F008026267626FA2
:10167000002A32D0800605D5880603D5216E09B12F
:1016800020468847606F000703D4206880684006C2
:1016900025D5204600F0CAFC20688168490619D586
:1016A000816821F040018160E06E98B1204981633A
:1016B000E06EFEF70BFE00280FD0E06E816B06E0B7
:1016C000860611D58E060FD5216E1EE02046BDE898
:1016D000F04108472046FFF78AFFBDE8F081204629
:1016E000FFF785FF6567F8E7C60209D55B0207D5F6
:1016F0004FF4801010622046BDE8F041FFF776BF3E
:10170000030605D50B0603D5616E0029DED1E4E79B
:101710004006E2D54806E0D51168204621F0400198
:101720001160202184F87110656600F06FF8D4E72D
:101730001920000810B5040003D094F8710010B10E
:1017400007E0012010BD002084F87000204600F062
:1017500027F8242084F871002068016821F0010135
:101760000160204600F072FC0128EBD0606A10B1E5
:10177000204600F0BFFB2068416821F490414160A1
:101780002068816821F02A0181602068016841F0A9
:10179000010101602046BDE8104000F00FBC0000D0
:1017A00000B50068174987B0884228D11648C16C37
:1017B00041F00101C164C16C01F001010591016EAC
:1017C00041F480410166006E694600F48040059056
:1017D0004FF4C0600090022001900020029003208E
:1017E0000390072004904FF09040FEF7B7FD0022D1
:1017F00001212520FEF7F8FE2520FEF7E9FE07B0BF
:1018000000BD000000380140001002407047000099
:1018100010B52B4C86B054F8580F40F0805044F867
:101820005409606D00F080500590FEF777FF254861
:10183000FFF754FCFEF760FF2348016821F4807134
:101840000160016841F480410160606820F400405B
:1018500060601E48016821F4C06141F4806101604C
:10186000006800F4C0600590A06C20F00400A06443
:10187000A06C20F08000A06400206066A066E06696
:101880006067A067E067606F40F480606067A06F8A
:1018900040F00100A06708200221CDE900010121EC
:1018A00002910321CDE9031069464FF09040FEF705
:1018B00055FD606840F40040606006B010BD000057
:1018C0000010024010000020002002400070004084
:1018D00010B5012202211148FEF707FEFEF7EEFCCB
:1018E000FEF7DCFCFEF7E2FC0D48C16C21F00101C3
:1018F000C164C16C21F00201C16481150948816194
:101900001F2181610120FEF711FFBDE81040002278
:101910004FF400610448FFF727BC000000040048B2
:1019200000100240007000401000002008B5174869
:10193000FFF7D4FB00F070FA15484169002901DA7D
:101940001F2181610169C90502D54FF48071816150
:101950000120FEF7D9FE0F48C16C41F00101C164BE
:10196000C16C01F001010091C16C41F00201C16440
:10197000C06C002200F00200009002210648FEF731
:10198000B4FDBDE808400548FFF70ABF100000207D
:1019900000700040001002400004004834000020A5
:1019A00010B505A000F0B6FCFFF792FFBDE81040AF
:1019B0000120FEF77DBE00003D3D3D20506F776564
:1019C000722053746F70203D3D3D0D0A00000000F1
:1019D0002DE9F041364886B0C16C41F00401C16484
:1019E000C16C01F004010591C16C41F08001C1643A
:1019F000C16C01F080010591C16C41F00101C1642D
:101A0000C16C01F001010591C16C41F00201C1649A
:101A1000C06CDFF8A08000F00200059000220221D7
:101A20004046FEF762FD4FF400500325CDE9000566
:101A30000024694602942048FEF790FC0B20CDE973
:101A40000005694602941D48FEF788FC01261C48E3
:101A50004FF09047CDE90060694638460296FEF7A0
:101A60007DFC49F6FE10CDE9000569460294384632
:101A7000FEF774FC4FF6FD70CDE90005694602944F
:101A80004046FEF76BFC0220CDE90006CDE902647A
:101A900069464046FEF762FC002202210620FEF75E
:101AA000A3FD0620FEF794FD06B0BDE8F08100001E
:101AB000001002400004004800080048001C0048D4
:101AC0000000311010B5264886B024490024C0E932
:101AD00000147F218160FF21C0E903144461846107
:101AE000C461FFF7E5FB18B143211EA000F011FC13
:101AF0008DF800408DF801408DF8024003940122DA
:101B0000694617480494FFF7B5FC18B14F2115A09A
:101B100000F0FFFB01208DF8140003208DF8150064
:101B200019208DF8160018208DF81700012205A93C
:101B30000B48FFF733FC18B159210AA000F0E9FB6C
:101B400000224FF400510648FFF70EFB002803D097
:101B5000602104A000F0DDFB06B010BD00280040AD
:101B6000100000202E2E2F5372632F7274632E6389
:101B700000000000104810B50E4901604FF4E1313B
:101B80004160002181600C22C160C0E904128161C2
:101B9000C16101624162FFF7CDFD18B1442107A088
:101BA00000F0B7FB0448FFF7C5FDBDE81040024850
:101BB000FFF7F6BD00380140340000202E2E2F53D1
:101BC00072632F75736172742E630000FEE709075C
:101BD000090E002806DA00F00F0000F1E02080F87E
:101BE000141D704700F1E02080F8001470470000D9
:101BF0002DE9F041444C05468846E06800268107FF
:101C000028680DD0E16801F00301814216D1A8B126
:101C1000E0686968C0F30210401C88420ED120E0E1
:101C2000012804D0022805D0032807D108E0216844
:101C3000890701E021684905002907DB01265FE0EB
:101C40002168890302D421684903F5E7E1686A68DD
:101C50006FF00F0321F0730103EB021211430143F4
:101C6000E160206820F080602060FEF743FC0746BA
:101C700005E000BFFEF73EFCC01B022837D82068F5
:101C80000001F7D4B8F1000F18D0B8F1010F1DD042
:101C9000287D4FF07E41400801EB4060A96840EA92
:101CA00001202169194A114008432061206840F051
:101CB00080602060FEF71EFC07461AE0A868297BBA
:101CC000000240EAC1602169114AECE7288A114903
:101CD000400801EB4050A96840EA012021690E4A02
:101CE000E1E700BFFEF706FCC01B022801D903266E
:101CF00006E020680001F5D52069A9690843206144
:101D00003046BDE8F081000000100240FF80FFF97E
:101D1000FF80FF070000E0FFFF809FFFF8B51C4D2C
:101D200006460024A86DC00002D5FEF7DDFC0DE0DC
:101D3000A86D40F08050A865A86D00F0805000901C
:101D4000FEF7D2FCA96D21F08051A965B0F5007FA6
:101D500004D0802E07D94FF003040AE0802E08D962
:101D6000A02E01D804E001D1022402E0702E00D19F
:101D700001240848016821F007012143016000683F
:101D800000F00700A04201D00120F8BD0020F8BDFE
:101D90000010024000200240010901EB810100F027
:101DA0000F0000EB4100C0B27047002102E00A388A
:101DB000C0B2491C0A28FAD2090740EA11607047EC
:101DC00070B504460068C168490614D44FF0FF316D
:101DD000C160FEF78FFB05464FF47A7607E000BF3F
:101DE000FEF788FB401BB04201D9032070BD20687C
:101DF000C0684006F4D5002070BD00000148FFF720
:101E00003DBA00001000002010B5FEF779FBBDE8D8
:101E10001040FFF7E7BB000010B5AEB0FEF77EFC48
:101E2000214850F8901F21F0180101601420009003
:101E3000012000240290CDE90604602008900A9455
:101E40006846FEF7F1FE00B1FEE70F20CDE9280459
:101E50002A942B94002128A82C94FEF7D3FD00B1DE
:101E6000FEE71248119040122790199411A8FEF72E
:101E70006BFC00B1FEE74FF48060FEF7E7FB00B1BA
:101E8000FEE7FEF749FE4FF47A71B0FBF1F0FFF781
:101E900095FB0420FFF785FB00221146501EFEF73C
:101EA000A3FB2EB010BD0000001002400100020094
:101EB0000D48016841F4700101600C48016841F06F
:101EC00001010160002181600268094B1A40026033
:101ED0008214C260026822F4802202608161024999
:101EE000C00380390860704788ED00E000100240B0
:101EF000FFFFF6EA90F82410C90706D001684A6887
:101F0000836A22F400321A434A6090F82410890749
:101F100006D501684A68C36A22F480321A434A60CF
:101F200090F82410490706D501684A68036B22F42B
:101F300080221A434A6090F82410090706D50168E8
:101F40004A68436B22F400421A434A6090F8241016
:101F5000C90606D501688A68836B22F480521A4349
:101F60008A6090F82410890606D501688A68C36BD8
:101F700022F400521A438A6090F82410490611D5C1
:101F800001684A68036C22F480121A434A60016CAB
:101F9000B1F5801F06D101684A68436C22F4C00283
:101FA0001A434A6090F82410090606D501684A6869
:101FB000806C22F4002202434A607047F8B5002684
:101FC00004464667FEF796FA0546206800686FF0FB
:101FD0007E47000708D52B4600224FF4001120460B
:101FE000009700F05DF960B92068006840070AD5E5
:101FF0002B4600224FF480012046009700F050F954
:1020000008B10320F8BD202084F8710084F8720024
:1020100084F870600020F8BD10B5806A0021A0F837
:102020005A10A0F85210FFF7E2FA10BD01680A68D2
:1020300022F490720A6001688A6822F001028A60C4
:10204000202180F872100021016670472DE9F041CF
:102050000446016880682369E669184363691025AE
:10206000002733431843844A0B68844E33400343AC
:102070000B6020684168E36821F4405119434160D6
:102080002168A069914201D0236A18438B6823F428
:10209000306303438B607A4B21687A4899420DD1B3
:1020A000D0F8880010F0030006D0012839D00228AB
:1020B00035D0032838D136E0012535E0724B9942FE
:1020C0000BD1D0F8880010F00C0026D0042828D0BE
:1020D000082824D00C2827D125E06C4B99420BD13D
:1020E000D0F8880010F0300017D0102819D0202820
:1020F00015D0302818D116E0914215D1D0F88800BB
:1021000010F4406009D0B0F5806F0AD0B0F5006FD0
:1021100005D0B0F5406F07D105E0002504E00225A9
:1021200002E0042500E00825594B00264FF400404A
:1021300091423DD135B1022D07D0042D07D0082D95
:1021400010D107E0FEF7EEFC03E0184602E0FEF7D0
:1021500009FDA8B3626802EB4201814202D8B0EBEC
:10216000023F01D9012774E0DFF828815DB1022D1B
:102170000CD0042D13D0082DF4D150082905401897
:1021800046F1000105E0FEF7CDFC0AE050084249A7
:10219000F5E70023FEF716F8A0F5407155E0FEF7CD
:1021A000E1FC6268010E0302500818187141F0E763
:1021B000E1694FF6EF7881422ED1092DD2D200E0AD
:1021C00047E0DFE805F006091F05220505052500A3
:1021D000C8E7FEF7A7FC01E0FEF7B4FC4100606829
:1021E00001EB5001B1FBF0F080B2A0F110014145CC
:1021F000B8D84FF6F0710140C0F3420001432068A7
:10220000C16026E025496068EAE7FEF7ABFCE5E738
:102210004FF480316068E3E7092DA3D2DFE805F0D1
:1022200006091E052205050525009BE7FEF77AFC39
:1022300001E0FEF787FC0146606801EB500100BF3A
:10224000B1FBF0F080B2A0F1100141458AD82168BD
:10225000C860266638466666BDE8F081606803EBB4
:102260005001EDE7FEF77EFCE5E7616800EB510009
:10227000B0FBF1F0E6E7000000800040F369FFEFFB
:102280000038014000100240004400400048004077
:102290000024F400FFFC0F00000024F40048E801D3
:1022A0002DE9F041984617460E460446069D1DE06E
:1022B000681C1BD02DB1FEF71DF9A0EB0800A84249
:1022C00014D92068016821F4D07101602068816808
:1022D00021F001018160202084F8710084F87200EF
:1022E000002084F870000320BDE8F0812068C069F8
:1022F00036EA000004D00020B842D9D00020F3E72D
:102300000120F9E70148FFF773B90000340000200D
:10231000FEE7FEE70FB4054B10B503A9044A029887
:1023200000F018F810BC5DF814FB0000BD27000891
:102330000C00002002E008C8121F08C1002AFAD1D0
:1023400070477047002001E001C1121F002AFBD135
:10235000704700002DE9FF4F8DB00F46054600265F
:1023600006E025280BD0DDE90F1290476D1C761C86
:1023700028780028F5D111B0304600F0F3B90024D8
:10238000A246A1460122EC4900E0044315F8013FB2
:10239000203B02FA03F00842F7D128782A2810D00F
:1023A0006FF02F022878A0F13001092914D80AEB28
:1023B0008A0102EB410144F0020400EB010A6D1CAA
:1023C000F0E701CF5FEA000A03D544F40054CAF1F4
:1023D000000A44F002046D1C28782E2817D115F845
:1023E000010F44F004042A280ED06FF02F02287841
:1023F000A0F1300109290AD809EB890102EB41015A
:1024000000EB01096D1CF2E757F8049B6D1C28785E
:102410006C280FD006DC4C2817D068280DD06A280D
:1024200014D104E0742810D07A280FD10DE044F4C0
:1024300000140AE044F4801401E044F44014697884
:10244000814202D104F580146D1C6D1C2A786E2A1D
:102450001FD00CDC632A31D004DC002A8BD0582A30
:1024600011D1A3E0642A68D0692A0CD165E0732AEF
:102470002ED004DC6F2A73D0702A04D19BE0752A19
:102480006FD0782A6ED01046DDE90F129047761C87
:1024900050E1C4F30250022806D0032809D00428D2
:1024A00001CF09D0066045E101CFF117C0E9006115
:1024B00040E101CF06803DE106703BE117F8040BD7
:1024C0008DF8000000208DF80100EB46012003E0AC
:1024D00057F804BB4FF0FF3061074FF0000102D402
:1024E0000DE008F10101884649450FDA8045F8DB27
:1024F0001BF808100029F4D108E008F10101884612
:102500008142FADB1BF808100029F6D1DDE90F2320
:10251000AAEB08008146214600F039F9304400EB6F
:10252000080604E0DDE90F121BF8010B9047B8F133
:102530000108F7D221464846F7E00A21C4F30253C6
:102540004FF0000B0891022B04D001CFC117032BD1
:1025500009D00AE0FF1D27F00707F7E8020108E0AD
:1025600032E01FE020E000B2C117042B01D140B2DD
:10257000C117031E71F1000307DA4FF0000CD0EB16
:102580000C006CEB01012D2302E0230504D52B2365
:102590008DF82430012303E0E30701D02023F7E77F
:1025A000984658E00A2110E010210EE010204FF06C
:1025B000000B08900CE010214FF0000B44F00404D5
:1025C0004FF00809089103E008214FF0000B089133
:1025D000C4F30253022B04D001CF0021032B06D0F9
:1025E00006E0FF1D27F00707F7E8020103E080B2CD
:1025F000042B00D1C0B24FF0000823072BD5702A5E
:1026000007D0DDF820C08CF0100C5CEA0B0C05D074
:102610000EE040238DF82430012308E050EA010346
:1026200006D030238DF824308DF8252002239846DB
:10263000DDF820C08CF0080C5CEA0B0C0BD150EAE2
:10264000010301D1630706D530238DF824304FF004
:102650000108A9F10109582A04D038A20B9208AA4E
:102660000A920BE03AA2F9E75B46089AFDF7AAFD49
:102670000B9B9B5C0A9A521E0A92137050EA01024D
:10268000F2D10A98ADEB000000F1200B600702D5F3
:1026900024F4803401E04FF00109D94502DDA9EBB3
:1026A0000B0000E0002000EB0B0141440890AAEB76
:1026B000010AE00306D4DDE90F232146504600F06D
:1026C00066F806444FF0000908E009A911F809006E
:1026D000DDE90F12904709F10109761CC145F4DBD1
:1026E000E0030CD5DDE90F232146504600F04FF8FA
:1026F000064404E0DDE90F1230209047761C08996B
:10270000481E08900029F5DC08E00A980A9900782C
:10271000491C0A91DDE90F129047761CBBF10001BC
:10272000ABF1010BF1DC21465046DDE90F2300F04F
:102730001CF806446D1C1BE60928010030313233B9
:1027400034353637383961626364656600000000ED
:1027500030313233343536373839414243444546D7
:102760000000000030BCBDE8C08F2DE9F0410446F8
:1027700000251E461746880404D405E0394620206B
:10278000B0476D1C641EF9D52846BDE8F0812DE9DF
:10279000F041044600251E469046C80301D5302767
:1027A00000E02027880404D505E041463846B047BC
:1027B0006D1C641EF9D52846BDE8F08104490968FE
:1027C000CA69D2435206FBD4C2B20A8570470000E0
:1027D000340000200026FDF79BFEFFF71DFBFFF7EE
:1027E000F7F8FFF76FF9FFF7C5F9FFF711F8134C8A
:1027F00000252570217812A0FFF78CFDC820FDF779
:102800008CFD761C0A2EF5DB0126607838B111A00C
:10281000FFF780FD0A20FDF780FD6570F5E7FFF703
:10282000BFF820780028F0D06670FFF77FF8217895
:102830000AA0FFF76FFD2570E7E700000000002009
:10284000696E69742077616B6575703D25640D0A4A
:102850000000000052756E210D0A000077616B6563
:1028600075703D25640D0A000000000000000000A6
:102870000102030406070809A0860100400D0300B9
:10288000801A060000350C0040420F0080841E00B4
:1028900000093D0000127A000024F40000366E01A9
:1028A0000048E801006CDC020000000001020304A3
:1028B000D028000800000020100000003423000889
:1028C000E028000810000020A004000044230008B5
:1028D000000000000000000000093D0000000000B2
:040000050800018D61
:00000001FF
